{
	"ObjectAttributes.sol": {
		"ObjectAttribute": {
			"abi": [
				{
					"inputs": [],
					"stateMutability": "nonpayable",
					"type": "constructor"
				},
				{
					"anonymous": false,
					"inputs": [
						{
							"indexed": false,
							"internalType": "uint256",
							"name": "obj_id",
							"type": "uint256"
						},
						{
							"indexed": false,
							"internalType": "string",
							"name": "name",
							"type": "string"
						}
					],
					"name": "NewObjectAdded",
					"type": "event"
				},
				{
					"anonymous": false,
					"inputs": [
						{
							"indexed": false,
							"internalType": "uint256",
							"name": "obj_id",
							"type": "uint256"
						}
					],
					"name": "ObjectChanged",
					"type": "event"
				},
				{
					"inputs": [
						{
							"internalType": "uint256",
							"name": "obj_id",
							"type": "uint256"
						},
						{
							"internalType": "string[6]",
							"name": "obj_arg",
							"type": "string[6]"
						}
					],
					"name": "change_attribs",
					"outputs": [],
					"stateMutability": "nonpayable",
					"type": "function"
				},
				{
					"inputs": [
						{
							"internalType": "uint256",
							"name": "obj_id",
							"type": "uint256"
						}
					],
					"name": "delete_object",
					"outputs": [],
					"stateMutability": "nonpayable",
					"type": "function"
				},
				{
					"inputs": [
						{
							"internalType": "string[6]",
							"name": "obj_arg",
							"type": "string[6]"
						}
					],
					"name": "object_add",
					"outputs": [],
					"stateMutability": "nonpayable",
					"type": "function"
				},
				{
					"inputs": [
						{
							"internalType": "uint256",
							"name": "",
							"type": "uint256"
						}
					],
					"name": "objects",
					"outputs": [
						{
							"internalType": "enum ObjectAttribute.ObjectState",
							"name": "state",
							"type": "uint8"
						},
						{
							"internalType": "string",
							"name": "name",
							"type": "string"
						},
						{
							"internalType": "string",
							"name": "campus",
							"type": "string"
						},
						{
							"internalType": "string",
							"name": "major",
							"type": "string"
						},
						{
							"internalType": "string",
							"name": "dorm",
							"type": "string"
						},
						{
							"internalType": "string",
							"name": "year",
							"type": "string"
						},
						{
							"internalType": "string",
							"name": "studentID",
							"type": "string"
						}
					],
					"stateMutability": "view",
					"type": "function"
				},
				{
					"inputs": [
						{
							"internalType": "uint256",
							"name": "obj_id",
							"type": "uint256"
						}
					],
					"name": "reactivate_object",
					"outputs": [],
					"stateMutability": "nonpayable",
					"type": "function"
				},
				{
					"inputs": [
						{
							"internalType": "uint256",
							"name": "obj_id",
							"type": "uint256"
						}
					],
					"name": "suspend_object",
					"outputs": [],
					"stateMutability": "nonpayable",
					"type": "function"
				}
			],
			"devdoc": {
				"kind": "dev",
				"methods": {},
				"version": 1
			},
			"evm": {
				"assembly": "    /* \"ObjectAttributes.sol\":27:4131  contract ObjectAttribute {\r... */\n  mstore(0x40, 0x80)\n    /* \"ObjectAttributes.sol\":973:1029  constructor()\r... */\n  callvalue\n  dup1\n  iszero\n  tag_1\n  jumpi\n  0x00\n  dup1\n  revert\ntag_1:\n  pop\n    /* \"ObjectAttributes.sol\":1011:1021  msg.sender */\n  caller\n    /* \"ObjectAttributes.sol\":1003:1008  admin */\n  0x00\n  dup1\n    /* \"ObjectAttributes.sol\":1003:1021  admin = msg.sender */\n  0x0100\n  exp\n  dup2\n  sload\n  dup2\n  0xffffffffffffffffffffffffffffffffffffffff\n  mul\n  not\n  and\n  swap1\n  dup4\n  0xffffffffffffffffffffffffffffffffffffffff\n  and\n  mul\n  or\n  swap1\n  sstore\n  pop\n    /* \"ObjectAttributes.sol\":27:4131  contract ObjectAttribute {\r... */\n  dataSize(sub_0)\n  dup1\n  dataOffset(sub_0)\n  0x00\n  codecopy\n  0x00\n  return\nstop\n\nsub_0: assembly {\n        /* \"ObjectAttributes.sol\":27:4131  contract ObjectAttribute {\r... */\n      mstore(0x40, 0x80)\n      callvalue\n      dup1\n      iszero\n      tag_1\n      jumpi\n      0x00\n      dup1\n      revert\n    tag_1:\n      pop\n      jumpi(tag_2, lt(calldatasize, 0x04))\n      shr(0xe0, calldataload(0x00))\n      dup1\n      0x02d9530d\n      eq\n      tag_3\n      jumpi\n      dup1\n      0x08dafd07\n      eq\n      tag_4\n      jumpi\n      dup1\n      0x85ca76d7\n      eq\n      tag_5\n      jumpi\n      dup1\n      0xed175850\n      eq\n      tag_6\n      jumpi\n      dup1\n      0xf23de3b2\n      eq\n      tag_7\n      jumpi\n      dup1\n      0xf55172d8\n      eq\n      tag_8\n      jumpi\n    tag_2:\n      0x00\n      dup1\n      revert\n        /* \"ObjectAttributes.sol\":2592:2842  function reactivate_object(\r... */\n    tag_3:\n      tag_9\n      0x04\n      dup1\n      calldatasize\n      sub\n      dup2\n      add\n      swap1\n      tag_10\n      swap2\n      swap1\n      tag_11\n      jump\t// in\n    tag_10:\n      tag_12\n      jump\t// in\n    tag_9:\n      stop\n        /* \"ObjectAttributes.sol\":1884:2135  function delete_object(\r... */\n    tag_4:\n      tag_13\n      0x04\n      dup1\n      calldatasize\n      sub\n      dup2\n      add\n      swap1\n      tag_14\n      swap2\n      swap1\n      tag_11\n      jump\t// in\n    tag_14:\n      tag_15\n      jump\t// in\n    tag_13:\n      stop\n        /* \"ObjectAttributes.sol\":2243:2493  function suspend_object(\r... */\n    tag_5:\n      tag_16\n      0x04\n      dup1\n      calldatasize\n      sub\n      dup2\n      add\n      swap1\n      tag_17\n      swap2\n      swap1\n      tag_11\n      jump\t// in\n    tag_17:\n      tag_18\n      jump\t// in\n    tag_16:\n      stop\n        /* \"ObjectAttributes.sol\":421:463  mapping (uint256 => Object) public objects */\n    tag_6:\n      tag_19\n      0x04\n      dup1\n      calldatasize\n      sub\n      dup2\n      add\n      swap1\n      tag_20\n      swap2\n      swap1\n      tag_11\n      jump\t// in\n    tag_20:\n      tag_21\n      jump\t// in\n    tag_19:\n      mload(0x40)\n      tag_22\n      swap8\n      swap7\n      swap6\n      swap5\n      swap4\n      swap3\n      swap2\n      swap1\n      tag_23\n      jump\t// in\n    tag_22:\n      mload(0x40)\n      dup1\n      swap2\n      sub\n      swap1\n      return\n        /* \"ObjectAttributes.sol\":1127:1775  function object_add(\r... */\n    tag_7:\n      tag_24\n      0x04\n      dup1\n      calldatasize\n      sub\n      dup2\n      add\n      swap1\n      tag_25\n      swap2\n      swap1\n      tag_26\n      jump\t// in\n    tag_25:\n      tag_27\n      jump\t// in\n    tag_24:\n      stop\n        /* \"ObjectAttributes.sol\":2985:4128  function change_attribs(\r... */\n    tag_8:\n      tag_28\n      0x04\n      dup1\n      calldatasize\n      sub\n      dup2\n      add\n      swap1\n      tag_29\n      swap2\n      swap1\n      tag_30\n      jump\t// in\n    tag_29:\n      tag_31\n      jump\t// in\n    tag_28:\n      stop\n        /* \"ObjectAttributes.sol\":2592:2842  function reactivate_object(\r... */\n    tag_12:\n        /* \"ObjectAttributes.sol\":544:549  admin */\n      0x00\n      dup1\n      sload\n      swap1\n      0x0100\n      exp\n      swap1\n      div\n      0xffffffffffffffffffffffffffffffffffffffff\n      and\n        /* \"ObjectAttributes.sol\":530:549  msg.sender == admin */\n      0xffffffffffffffffffffffffffffffffffffffff\n      and\n        /* \"ObjectAttributes.sol\":530:540  msg.sender */\n      caller\n        /* \"ObjectAttributes.sol\":530:549  msg.sender == admin */\n      0xffffffffffffffffffffffffffffffffffffffff\n      and\n      eq\n        /* \"ObjectAttributes.sol\":522:550  require(msg.sender == admin) */\n      tag_33\n      jumpi\n      0x00\n      dup1\n      revert\n    tag_33:\n        /* \"ObjectAttributes.sol\":2768:2774  obj_id */\n      dup1\n        /* \"ObjectAttributes.sol\":788:811  ObjectState.Deactivated */\n      0x03\n        /* \"ObjectAttributes.sol\":763:811  objects[obj_id].state != ObjectState.Deactivated */\n      dup1\n      dup2\n      gt\n      iszero\n      tag_35\n      jumpi\n      tag_36\n      tag_37\n      jump\t// in\n    tag_36:\n    tag_35:\n        /* \"ObjectAttributes.sol\":763:770  objects */\n      0x02\n        /* \"ObjectAttributes.sol\":763:778  objects[obj_id] */\n      0x00\n        /* \"ObjectAttributes.sol\":771:777  obj_id */\n      dup4\n        /* \"ObjectAttributes.sol\":763:778  objects[obj_id] */\n      dup2\n      mstore\n      0x20\n      add\n      swap1\n      dup2\n      mstore\n      0x20\n      add\n      0x00\n      keccak256\n        /* \"ObjectAttributes.sol\":763:784  objects[obj_id].state */\n      0x00\n      add\n      0x00\n      swap1\n      sload\n      swap1\n      0x0100\n      exp\n      swap1\n      div\n      0xff\n      and\n        /* \"ObjectAttributes.sol\":763:811  objects[obj_id].state != ObjectState.Deactivated */\n      0x03\n      dup2\n      gt\n      iszero\n      tag_38\n      jumpi\n      tag_39\n      tag_37\n      jump\t// in\n    tag_39:\n    tag_38:\n      eq\n      iszero\n        /* \"ObjectAttributes.sol\":755:812  require(objects[obj_id].state != ObjectState.Deactivated) */\n      tag_40\n      jumpi\n      0x00\n      dup1\n      revert\n    tag_40:\n        /* \"ObjectAttributes.sol\":2816:2834  ObjectState.Active */\n      0x01\n        /* \"ObjectAttributes.sol\":2792:2799  objects */\n      0x02\n        /* \"ObjectAttributes.sol\":2792:2807  objects[obj_id] */\n      0x00\n        /* \"ObjectAttributes.sol\":2800:2806  obj_id */\n      dup5\n        /* \"ObjectAttributes.sol\":2792:2807  objects[obj_id] */\n      dup2\n      mstore\n      0x20\n      add\n      swap1\n      dup2\n      mstore\n      0x20\n      add\n      0x00\n      keccak256\n        /* \"ObjectAttributes.sol\":2792:2813  objects[obj_id].state */\n      0x00\n      add\n      0x00\n        /* \"ObjectAttributes.sol\":2792:2834  objects[obj_id].state = ObjectState.Active */\n      0x0100\n      exp\n      dup2\n      sload\n      dup2\n      0xff\n      mul\n      not\n      and\n      swap1\n      dup4\n      0x03\n      dup2\n      gt\n      iszero\n      tag_42\n      jumpi\n      tag_43\n      tag_37\n      jump\t// in\n    tag_43:\n    tag_42:\n      mul\n      or\n      swap1\n      sstore\n      pop\n        /* \"ObjectAttributes.sol\":561:562  _ */\n      pop\n        /* \"ObjectAttributes.sol\":2592:2842  function reactivate_object(\r... */\n      pop\n      jump\t// out\n        /* \"ObjectAttributes.sol\":1884:2135  function delete_object(\r... */\n    tag_15:\n        /* \"ObjectAttributes.sol\":544:549  admin */\n      0x00\n      dup1\n      sload\n      swap1\n      0x0100\n      exp\n      swap1\n      div\n      0xffffffffffffffffffffffffffffffffffffffff\n      and\n        /* \"ObjectAttributes.sol\":530:549  msg.sender == admin */\n      0xffffffffffffffffffffffffffffffffffffffff\n      and\n        /* \"ObjectAttributes.sol\":530:540  msg.sender */\n      caller\n        /* \"ObjectAttributes.sol\":530:549  msg.sender == admin */\n      0xffffffffffffffffffffffffffffffffffffffff\n      and\n      eq\n        /* \"ObjectAttributes.sol\":522:550  require(msg.sender == admin) */\n      tag_45\n      jumpi\n      0x00\n      dup1\n      revert\n    tag_45:\n        /* \"ObjectAttributes.sol\":2056:2062  obj_id */\n      dup1\n        /* \"ObjectAttributes.sol\":788:811  ObjectState.Deactivated */\n      0x03\n        /* \"ObjectAttributes.sol\":763:811  objects[obj_id].state != ObjectState.Deactivated */\n      dup1\n      dup2\n      gt\n      iszero\n      tag_47\n      jumpi\n      tag_48\n      tag_37\n      jump\t// in\n    tag_48:\n    tag_47:\n        /* \"ObjectAttributes.sol\":763:770  objects */\n      0x02\n        /* \"ObjectAttributes.sol\":763:778  objects[obj_id] */\n      0x00\n        /* \"ObjectAttributes.sol\":771:777  obj_id */\n      dup4\n        /* \"ObjectAttributes.sol\":763:778  objects[obj_id] */\n      dup2\n      mstore\n      0x20\n      add\n      swap1\n      dup2\n      mstore\n      0x20\n      add\n      0x00\n      keccak256\n        /* \"ObjectAttributes.sol\":763:784  objects[obj_id].state */\n      0x00\n      add\n      0x00\n      swap1\n      sload\n      swap1\n      0x0100\n      exp\n      swap1\n      div\n      0xff\n      and\n        /* \"ObjectAttributes.sol\":763:811  objects[obj_id].state != ObjectState.Deactivated */\n      0x03\n      dup2\n      gt\n      iszero\n      tag_49\n      jumpi\n      tag_50\n      tag_37\n      jump\t// in\n    tag_50:\n    tag_49:\n      eq\n      iszero\n        /* \"ObjectAttributes.sol\":755:812  require(objects[obj_id].state != ObjectState.Deactivated) */\n      tag_51\n      jumpi\n      0x00\n      dup1\n      revert\n    tag_51:\n        /* \"ObjectAttributes.sol\":2104:2127  ObjectState.Deactivated */\n      0x03\n        /* \"ObjectAttributes.sol\":2080:2087  objects */\n      0x02\n        /* \"ObjectAttributes.sol\":2080:2095  objects[obj_id] */\n      0x00\n        /* \"ObjectAttributes.sol\":2088:2094  obj_id */\n      dup5\n        /* \"ObjectAttributes.sol\":2080:2095  objects[obj_id] */\n      dup2\n      mstore\n      0x20\n      add\n      swap1\n      dup2\n      mstore\n      0x20\n      add\n      0x00\n      keccak256\n        /* \"ObjectAttributes.sol\":2080:2101  objects[obj_id].state */\n      0x00\n      add\n      0x00\n        /* \"ObjectAttributes.sol\":2080:2127  objects[obj_id].state = ObjectState.Deactivated */\n      0x0100\n      exp\n      dup2\n      sload\n      dup2\n      0xff\n      mul\n      not\n      and\n      swap1\n      dup4\n      0x03\n      dup2\n      gt\n      iszero\n      tag_53\n      jumpi\n      tag_54\n      tag_37\n      jump\t// in\n    tag_54:\n    tag_53:\n      mul\n      or\n      swap1\n      sstore\n      pop\n        /* \"ObjectAttributes.sol\":561:562  _ */\n      pop\n        /* \"ObjectAttributes.sol\":1884:2135  function delete_object(\r... */\n      pop\n      jump\t// out\n        /* \"ObjectAttributes.sol\":2243:2493  function suspend_object(\r... */\n    tag_18:\n        /* \"ObjectAttributes.sol\":544:549  admin */\n      0x00\n      dup1\n      sload\n      swap1\n      0x0100\n      exp\n      swap1\n      div\n      0xffffffffffffffffffffffffffffffffffffffff\n      and\n        /* \"ObjectAttributes.sol\":530:549  msg.sender == admin */\n      0xffffffffffffffffffffffffffffffffffffffff\n      and\n        /* \"ObjectAttributes.sol\":530:540  msg.sender */\n      caller\n        /* \"ObjectAttributes.sol\":530:549  msg.sender == admin */\n      0xffffffffffffffffffffffffffffffffffffffff\n      and\n      eq\n        /* \"ObjectAttributes.sol\":522:550  require(msg.sender == admin) */\n      tag_56\n      jumpi\n      0x00\n      dup1\n      revert\n    tag_56:\n        /* \"ObjectAttributes.sol\":2416:2422  obj_id */\n      dup1\n        /* \"ObjectAttributes.sol\":788:811  ObjectState.Deactivated */\n      0x03\n        /* \"ObjectAttributes.sol\":763:811  objects[obj_id].state != ObjectState.Deactivated */\n      dup1\n      dup2\n      gt\n      iszero\n      tag_58\n      jumpi\n      tag_59\n      tag_37\n      jump\t// in\n    tag_59:\n    tag_58:\n        /* \"ObjectAttributes.sol\":763:770  objects */\n      0x02\n        /* \"ObjectAttributes.sol\":763:778  objects[obj_id] */\n      0x00\n        /* \"ObjectAttributes.sol\":771:777  obj_id */\n      dup4\n        /* \"ObjectAttributes.sol\":763:778  objects[obj_id] */\n      dup2\n      mstore\n      0x20\n      add\n      swap1\n      dup2\n      mstore\n      0x20\n      add\n      0x00\n      keccak256\n        /* \"ObjectAttributes.sol\":763:784  objects[obj_id].state */\n      0x00\n      add\n      0x00\n      swap1\n      sload\n      swap1\n      0x0100\n      exp\n      swap1\n      div\n      0xff\n      and\n        /* \"ObjectAttributes.sol\":763:811  objects[obj_id].state != ObjectState.Deactivated */\n      0x03\n      dup2\n      gt\n      iszero\n      tag_60\n      jumpi\n      tag_61\n      tag_37\n      jump\t// in\n    tag_61:\n    tag_60:\n      eq\n      iszero\n        /* \"ObjectAttributes.sol\":755:812  require(objects[obj_id].state != ObjectState.Deactivated) */\n      tag_62\n      jumpi\n      0x00\n      dup1\n      revert\n    tag_62:\n        /* \"ObjectAttributes.sol\":2464:2485  ObjectState.Suspended */\n      0x02\n        /* \"ObjectAttributes.sol\":2440:2447  objects */\n      dup1\n        /* \"ObjectAttributes.sol\":2440:2455  objects[obj_id] */\n      0x00\n        /* \"ObjectAttributes.sol\":2448:2454  obj_id */\n      dup5\n        /* \"ObjectAttributes.sol\":2440:2455  objects[obj_id] */\n      dup2\n      mstore\n      0x20\n      add\n      swap1\n      dup2\n      mstore\n      0x20\n      add\n      0x00\n      keccak256\n        /* \"ObjectAttributes.sol\":2440:2461  objects[obj_id].state */\n      0x00\n      add\n      0x00\n        /* \"ObjectAttributes.sol\":2440:2485  objects[obj_id].state = ObjectState.Suspended */\n      0x0100\n      exp\n      dup2\n      sload\n      dup2\n      0xff\n      mul\n      not\n      and\n      swap1\n      dup4\n      0x03\n      dup2\n      gt\n      iszero\n      tag_64\n      jumpi\n      tag_65\n      tag_37\n      jump\t// in\n    tag_65:\n    tag_64:\n      mul\n      or\n      swap1\n      sstore\n      pop\n        /* \"ObjectAttributes.sol\":561:562  _ */\n      pop\n        /* \"ObjectAttributes.sol\":2243:2493  function suspend_object(\r... */\n      pop\n      jump\t// out\n        /* \"ObjectAttributes.sol\":421:463  mapping (uint256 => Object) public objects */\n    tag_21:\n      mstore(0x20, 0x02)\n      dup1\n      0x00\n      mstore\n      keccak256(0x00, 0x40)\n      0x00\n      swap2\n      pop\n      swap1\n      pop\n      dup1\n      0x00\n      add\n      0x00\n      swap1\n      sload\n      swap1\n      0x0100\n      exp\n      swap1\n      div\n      0xff\n      and\n      swap1\n      dup1\n      0x01\n      add\n      dup1\n      sload\n      tag_66\n      swap1\n      tag_67\n      jump\t// in\n    tag_66:\n      dup1\n      0x1f\n      add\n      0x20\n      dup1\n      swap2\n      div\n      mul\n      0x20\n      add\n      mload(0x40)\n      swap1\n      dup2\n      add\n      0x40\n      mstore\n      dup1\n      swap3\n      swap2\n      swap1\n      dup2\n      dup2\n      mstore\n      0x20\n      add\n      dup3\n      dup1\n      sload\n      tag_68\n      swap1\n      tag_67\n      jump\t// in\n    tag_68:\n      dup1\n      iszero\n      tag_69\n      jumpi\n      dup1\n      0x1f\n      lt\n      tag_70\n      jumpi\n      0x0100\n      dup1\n      dup4\n      sload\n      div\n      mul\n      dup4\n      mstore\n      swap2\n      0x20\n      add\n      swap2\n      jump(tag_69)\n    tag_70:\n      dup3\n      add\n      swap2\n      swap1\n      0x00\n      mstore\n      keccak256(0x00, 0x20)\n      swap1\n    tag_71:\n      dup2\n      sload\n      dup2\n      mstore\n      swap1\n      0x01\n      add\n      swap1\n      0x20\n      add\n      dup1\n      dup4\n      gt\n      tag_71\n      jumpi\n      dup3\n      swap1\n      sub\n      0x1f\n      and\n      dup3\n      add\n      swap2\n    tag_69:\n      pop\n      pop\n      pop\n      pop\n      pop\n      swap1\n      dup1\n      0x02\n      add\n      dup1\n      sload\n      tag_72\n      swap1\n      tag_67\n      jump\t// in\n    tag_72:\n      dup1\n      0x1f\n      add\n      0x20\n      dup1\n      swap2\n      div\n      mul\n      0x20\n      add\n      mload(0x40)\n      swap1\n      dup2\n      add\n      0x40\n      mstore\n      dup1\n      swap3\n      swap2\n      swap1\n      dup2\n      dup2\n      mstore\n      0x20\n      add\n      dup3\n      dup1\n      sload\n      tag_73\n      swap1\n      tag_67\n      jump\t// in\n    tag_73:\n      dup1\n      iszero\n      tag_74\n      jumpi\n      dup1\n      0x1f\n      lt\n      tag_75\n      jumpi\n      0x0100\n      dup1\n      dup4\n      sload\n      div\n      mul\n      dup4\n      mstore\n      swap2\n      0x20\n      add\n      swap2\n      jump(tag_74)\n    tag_75:\n      dup3\n      add\n      swap2\n      swap1\n      0x00\n      mstore\n      keccak256(0x00, 0x20)\n      swap1\n    tag_76:\n      dup2\n      sload\n      dup2\n      mstore\n      swap1\n      0x01\n      add\n      swap1\n      0x20\n      add\n      dup1\n      dup4\n      gt\n      tag_76\n      jumpi\n      dup3\n      swap1\n      sub\n      0x1f\n      and\n      dup3\n      add\n      swap2\n    tag_74:\n      pop\n      pop\n      pop\n      pop\n      pop\n      swap1\n      dup1\n      0x03\n      add\n      dup1\n      sload\n      tag_77\n      swap1\n      tag_67\n      jump\t// in\n    tag_77:\n      dup1\n      0x1f\n      add\n      0x20\n      dup1\n      swap2\n      div\n      mul\n      0x20\n      add\n      mload(0x40)\n      swap1\n      dup2\n      add\n      0x40\n      mstore\n      dup1\n      swap3\n      swap2\n      swap1\n      dup2\n      dup2\n      mstore\n      0x20\n      add\n      dup3\n      dup1\n      sload\n      tag_78\n      swap1\n      tag_67\n      jump\t// in\n    tag_78:\n      dup1\n      iszero\n      tag_79\n      jumpi\n      dup1\n      0x1f\n      lt\n      tag_80\n      jumpi\n      0x0100\n      dup1\n      dup4\n      sload\n      div\n      mul\n      dup4\n      mstore\n      swap2\n      0x20\n      add\n      swap2\n      jump(tag_79)\n    tag_80:\n      dup3\n      add\n      swap2\n      swap1\n      0x00\n      mstore\n      keccak256(0x00, 0x20)\n      swap1\n    tag_81:\n      dup2\n      sload\n      dup2\n      mstore\n      swap1\n      0x01\n      add\n      swap1\n      0x20\n      add\n      dup1\n      dup4\n      gt\n      tag_81\n      jumpi\n      dup3\n      swap1\n      sub\n      0x1f\n      and\n      dup3\n      add\n      swap2\n    tag_79:\n      pop\n      pop\n      pop\n      pop\n      pop\n      swap1\n      dup1\n      0x04\n      add\n      dup1\n      sload\n      tag_82\n      swap1\n      tag_67\n      jump\t// in\n    tag_82:\n      dup1\n      0x1f\n      add\n      0x20\n      dup1\n      swap2\n      div\n      mul\n      0x20\n      add\n      mload(0x40)\n      swap1\n      dup2\n      add\n      0x40\n      mstore\n      dup1\n      swap3\n      swap2\n      swap1\n      dup2\n      dup2\n      mstore\n      0x20\n      add\n      dup3\n      dup1\n      sload\n      tag_83\n      swap1\n      tag_67\n      jump\t// in\n    tag_83:\n      dup1\n      iszero\n      tag_84\n      jumpi\n      dup1\n      0x1f\n      lt\n      tag_85\n      jumpi\n      0x0100\n      dup1\n      dup4\n      sload\n      div\n      mul\n      dup4\n      mstore\n      swap2\n      0x20\n      add\n      swap2\n      jump(tag_84)\n    tag_85:\n      dup3\n      add\n      swap2\n      swap1\n      0x00\n      mstore\n      keccak256(0x00, 0x20)\n      swap1\n    tag_86:\n      dup2\n      sload\n      dup2\n      mstore\n      swap1\n      0x01\n      add\n      swap1\n      0x20\n      add\n      dup1\n      dup4\n      gt\n      tag_86\n      jumpi\n      dup3\n      swap1\n      sub\n      0x1f\n      and\n      dup3\n      add\n      swap2\n    tag_84:\n      pop\n      pop\n      pop\n      pop\n      pop\n      swap1\n      dup1\n      0x05\n      add\n      dup1\n      sload\n      tag_87\n      swap1\n      tag_67\n      jump\t// in\n    tag_87:\n      dup1\n      0x1f\n      add\n      0x20\n      dup1\n      swap2\n      div\n      mul\n      0x20\n      add\n      mload(0x40)\n      swap1\n      dup2\n      add\n      0x40\n      mstore\n      dup1\n      swap3\n      swap2\n      swap1\n      dup2\n      dup2\n      mstore\n      0x20\n      add\n      dup3\n      dup1\n      sload\n      tag_88\n      swap1\n      tag_67\n      jump\t// in\n    tag_88:\n      dup1\n      iszero\n      tag_89\n      jumpi\n      dup1\n      0x1f\n      lt\n      tag_90\n      jumpi\n      0x0100\n      dup1\n      dup4\n      sload\n      div\n      mul\n      dup4\n      mstore\n      swap2\n      0x20\n      add\n      swap2\n      jump(tag_89)\n    tag_90:\n      dup3\n      add\n      swap2\n      swap1\n      0x00\n      mstore\n      keccak256(0x00, 0x20)\n      swap1\n    tag_91:\n      dup2\n      sload\n      dup2\n      mstore\n      swap1\n      0x01\n      add\n      swap1\n      0x20\n      add\n      dup1\n      dup4\n      gt\n      tag_91\n      jumpi\n      dup3\n      swap1\n      sub\n      0x1f\n      and\n      dup3\n      add\n      swap2\n    tag_89:\n      pop\n      pop\n      pop\n      pop\n      pop\n      swap1\n      dup1\n      0x06\n      add\n      dup1\n      sload\n      tag_92\n      swap1\n      tag_67\n      jump\t// in\n    tag_92:\n      dup1\n      0x1f\n      add\n      0x20\n      dup1\n      swap2\n      div\n      mul\n      0x20\n      add\n      mload(0x40)\n      swap1\n      dup2\n      add\n      0x40\n      mstore\n      dup1\n      swap3\n      swap2\n      swap1\n      dup2\n      dup2\n      mstore\n      0x20\n      add\n      dup3\n      dup1\n      sload\n      tag_93\n      swap1\n      tag_67\n      jump\t// in\n    tag_93:\n      dup1\n      iszero\n      tag_94\n      jumpi\n      dup1\n      0x1f\n      lt\n      tag_95\n      jumpi\n      0x0100\n      dup1\n      dup4\n      sload\n      div\n      mul\n      dup4\n      mstore\n      swap2\n      0x20\n      add\n      swap2\n      jump(tag_94)\n    tag_95:\n      dup3\n      add\n      swap2\n      swap1\n      0x00\n      mstore\n      keccak256(0x00, 0x20)\n      swap1\n    tag_96:\n      dup2\n      sload\n      dup2\n      mstore\n      swap1\n      0x01\n      add\n      swap1\n      0x20\n      add\n      dup1\n      dup4\n      gt\n      tag_96\n      jumpi\n      dup3\n      swap1\n      sub\n      0x1f\n      and\n      dup3\n      add\n      swap2\n    tag_94:\n      pop\n      pop\n      pop\n      pop\n      pop\n      swap1\n      pop\n      dup8\n      jump\t// out\n        /* \"ObjectAttributes.sol\":1127:1775  function object_add(\r... */\n    tag_27:\n        /* \"ObjectAttributes.sol\":544:549  admin */\n      0x00\n      dup1\n      sload\n      swap1\n      0x0100\n      exp\n      swap1\n      div\n      0xffffffffffffffffffffffffffffffffffffffff\n      and\n        /* \"ObjectAttributes.sol\":530:549  msg.sender == admin */\n      0xffffffffffffffffffffffffffffffffffffffff\n      and\n        /* \"ObjectAttributes.sol\":530:540  msg.sender */\n      caller\n        /* \"ObjectAttributes.sol\":530:549  msg.sender == admin */\n      0xffffffffffffffffffffffffffffffffffffffff\n      and\n      eq\n        /* \"ObjectAttributes.sol\":522:550  require(msg.sender == admin) */\n      tag_98\n      jumpi\n      0x00\n      dup1\n      revert\n    tag_98:\n        /* \"ObjectAttributes.sol\":1301:1315  uint256 obj_id */\n      0x00\n        /* \"ObjectAttributes.sol\":1318:1329  num_objects */\n      sload(0x01)\n        /* \"ObjectAttributes.sol\":1301:1329  uint256 obj_id = num_objects */\n      swap1\n      pop\n        /* \"ObjectAttributes.sol\":1340:1351  num_objects */\n      0x01\n      0x00\n        /* \"ObjectAttributes.sol\":1340:1353  num_objects++ */\n      dup2\n      sload\n      dup1\n      swap3\n      swap2\n      swap1\n      tag_100\n      swap1\n      tag_101\n      jump\t// in\n    tag_100:\n      swap2\n      swap1\n      pop\n      sstore\n      pop\n        /* \"ObjectAttributes.sol\":1388:1406  ObjectState.Active */\n      0x01\n        /* \"ObjectAttributes.sol\":1364:1371  objects */\n      0x02\n        /* \"ObjectAttributes.sol\":1364:1379  objects[obj_id] */\n      0x00\n        /* \"ObjectAttributes.sol\":1372:1378  obj_id */\n      dup4\n        /* \"ObjectAttributes.sol\":1364:1379  objects[obj_id] */\n      dup2\n      mstore\n      0x20\n      add\n      swap1\n      dup2\n      mstore\n      0x20\n      add\n      0x00\n      keccak256\n        /* \"ObjectAttributes.sol\":1364:1385  objects[obj_id].state */\n      0x00\n      add\n      0x00\n        /* \"ObjectAttributes.sol\":1364:1406  objects[obj_id].state = ObjectState.Active */\n      0x0100\n      exp\n      dup2\n      sload\n      dup2\n      0xff\n      mul\n      not\n      and\n      swap1\n      dup4\n      0x03\n      dup2\n      gt\n      iszero\n      tag_102\n      jumpi\n      tag_103\n      tag_37\n      jump\t// in\n    tag_103:\n    tag_102:\n      mul\n      or\n      swap1\n      sstore\n      pop\n        /* \"ObjectAttributes.sol\":1469:1476  obj_arg */\n      dup2\n        /* \"ObjectAttributes.sol\":1477:1478  0 */\n      0x00\n        /* \"ObjectAttributes.sol\":1469:1479  obj_arg[0] */\n      0x06\n      dup2\n      lt\n      tag_104\n      jumpi\n      tag_105\n      tag_106\n      jump\t// in\n    tag_105:\n    tag_104:\n      0x20\n      mul\n      add\n      mload\n        /* \"ObjectAttributes.sol\":1446:1453  objects */\n      0x02\n        /* \"ObjectAttributes.sol\":1446:1461  objects[obj_id] */\n      0x00\n        /* \"ObjectAttributes.sol\":1454:1460  obj_id */\n      dup4\n        /* \"ObjectAttributes.sol\":1446:1461  objects[obj_id] */\n      dup2\n      mstore\n      0x20\n      add\n      swap1\n      dup2\n      mstore\n      0x20\n      add\n      0x00\n      keccak256\n        /* \"ObjectAttributes.sol\":1446:1466  objects[obj_id].name */\n      0x01\n      add\n        /* \"ObjectAttributes.sol\":1446:1479  objects[obj_id].name = obj_arg[0] */\n      swap1\n      dup1\n      mload\n      swap1\n      0x20\n      add\n      swap1\n      tag_107\n      swap3\n      swap2\n      swap1\n      tag_108\n      jump\t// in\n    tag_107:\n      pop\n        /* \"ObjectAttributes.sol\":1515:1522  obj_arg */\n      dup2\n        /* \"ObjectAttributes.sol\":1523:1524  1 */\n      0x01\n        /* \"ObjectAttributes.sol\":1515:1525  obj_arg[1] */\n      0x06\n      dup2\n      lt\n      tag_109\n      jumpi\n      tag_110\n      tag_106\n      jump\t// in\n    tag_110:\n    tag_109:\n      0x20\n      mul\n      add\n      mload\n        /* \"ObjectAttributes.sol\":1490:1497  objects */\n      0x02\n        /* \"ObjectAttributes.sol\":1490:1505  objects[obj_id] */\n      0x00\n        /* \"ObjectAttributes.sol\":1498:1504  obj_id */\n      dup4\n        /* \"ObjectAttributes.sol\":1490:1505  objects[obj_id] */\n      dup2\n      mstore\n      0x20\n      add\n      swap1\n      dup2\n      mstore\n      0x20\n      add\n      0x00\n      keccak256\n        /* \"ObjectAttributes.sol\":1490:1512  objects[obj_id].campus */\n      0x02\n      add\n        /* \"ObjectAttributes.sol\":1490:1525  objects[obj_id].campus = obj_arg[1] */\n      swap1\n      dup1\n      mload\n      swap1\n      0x20\n      add\n      swap1\n      tag_111\n      swap3\n      swap2\n      swap1\n      tag_108\n      jump\t// in\n    tag_111:\n      pop\n        /* \"ObjectAttributes.sol\":1560:1567  obj_arg */\n      dup2\n        /* \"ObjectAttributes.sol\":1568:1569  2 */\n      0x02\n        /* \"ObjectAttributes.sol\":1560:1570  obj_arg[2] */\n      0x06\n      dup2\n      lt\n      tag_112\n      jumpi\n      tag_113\n      tag_106\n      jump\t// in\n    tag_113:\n    tag_112:\n      0x20\n      mul\n      add\n      mload\n        /* \"ObjectAttributes.sol\":1536:1543  objects */\n      0x02\n        /* \"ObjectAttributes.sol\":1536:1551  objects[obj_id] */\n      0x00\n        /* \"ObjectAttributes.sol\":1544:1550  obj_id */\n      dup4\n        /* \"ObjectAttributes.sol\":1536:1551  objects[obj_id] */\n      dup2\n      mstore\n      0x20\n      add\n      swap1\n      dup2\n      mstore\n      0x20\n      add\n      0x00\n      keccak256\n        /* \"ObjectAttributes.sol\":1536:1557  objects[obj_id].major */\n      0x03\n      add\n        /* \"ObjectAttributes.sol\":1536:1570  objects[obj_id].major = obj_arg[2] */\n      swap1\n      dup1\n      mload\n      swap1\n      0x20\n      add\n      swap1\n      tag_114\n      swap3\n      swap2\n      swap1\n      tag_108\n      jump\t// in\n    tag_114:\n      pop\n        /* \"ObjectAttributes.sol\":1604:1611  obj_arg */\n      dup2\n        /* \"ObjectAttributes.sol\":1612:1613  3 */\n      0x03\n        /* \"ObjectAttributes.sol\":1604:1614  obj_arg[3] */\n      0x06\n      dup2\n      lt\n      tag_115\n      jumpi\n      tag_116\n      tag_106\n      jump\t// in\n    tag_116:\n    tag_115:\n      0x20\n      mul\n      add\n      mload\n        /* \"ObjectAttributes.sol\":1581:1588  objects */\n      0x02\n        /* \"ObjectAttributes.sol\":1581:1596  objects[obj_id] */\n      0x00\n        /* \"ObjectAttributes.sol\":1589:1595  obj_id */\n      dup4\n        /* \"ObjectAttributes.sol\":1581:1596  objects[obj_id] */\n      dup2\n      mstore\n      0x20\n      add\n      swap1\n      dup2\n      mstore\n      0x20\n      add\n      0x00\n      keccak256\n        /* \"ObjectAttributes.sol\":1581:1601  objects[obj_id].dorm */\n      0x04\n      add\n        /* \"ObjectAttributes.sol\":1581:1614  objects[obj_id].dorm = obj_arg[3] */\n      swap1\n      dup1\n      mload\n      swap1\n      0x20\n      add\n      swap1\n      tag_117\n      swap3\n      swap2\n      swap1\n      tag_108\n      jump\t// in\n    tag_117:\n      pop\n        /* \"ObjectAttributes.sol\":1648:1655  obj_arg */\n      dup2\n        /* \"ObjectAttributes.sol\":1656:1657  4 */\n      0x04\n        /* \"ObjectAttributes.sol\":1648:1658  obj_arg[4] */\n      0x06\n      dup2\n      lt\n      tag_118\n      jumpi\n      tag_119\n      tag_106\n      jump\t// in\n    tag_119:\n    tag_118:\n      0x20\n      mul\n      add\n      mload\n        /* \"ObjectAttributes.sol\":1625:1632  objects */\n      0x02\n        /* \"ObjectAttributes.sol\":1625:1640  objects[obj_id] */\n      0x00\n        /* \"ObjectAttributes.sol\":1633:1639  obj_id */\n      dup4\n        /* \"ObjectAttributes.sol\":1625:1640  objects[obj_id] */\n      dup2\n      mstore\n      0x20\n      add\n      swap1\n      dup2\n      mstore\n      0x20\n      add\n      0x00\n      keccak256\n        /* \"ObjectAttributes.sol\":1625:1645  objects[obj_id].year */\n      0x05\n      add\n        /* \"ObjectAttributes.sol\":1625:1658  objects[obj_id].year = obj_arg[4] */\n      swap1\n      dup1\n      mload\n      swap1\n      0x20\n      add\n      swap1\n      tag_120\n      swap3\n      swap2\n      swap1\n      tag_108\n      jump\t// in\n    tag_120:\n      pop\n        /* \"ObjectAttributes.sol\":1697:1704  obj_arg */\n      dup2\n        /* \"ObjectAttributes.sol\":1705:1706  5 */\n      0x05\n        /* \"ObjectAttributes.sol\":1697:1707  obj_arg[5] */\n      0x06\n      dup2\n      lt\n      tag_121\n      jumpi\n      tag_122\n      tag_106\n      jump\t// in\n    tag_122:\n    tag_121:\n      0x20\n      mul\n      add\n      mload\n        /* \"ObjectAttributes.sol\":1669:1676  objects */\n      0x02\n        /* \"ObjectAttributes.sol\":1669:1684  objects[obj_id] */\n      0x00\n        /* \"ObjectAttributes.sol\":1677:1683  obj_id */\n      dup4\n        /* \"ObjectAttributes.sol\":1669:1684  objects[obj_id] */\n      dup2\n      mstore\n      0x20\n      add\n      swap1\n      dup2\n      mstore\n      0x20\n      add\n      0x00\n      keccak256\n        /* \"ObjectAttributes.sol\":1669:1694  objects[obj_id].studentID */\n      0x06\n      add\n        /* \"ObjectAttributes.sol\":1669:1707  objects[obj_id].studentID = obj_arg[5] */\n      swap1\n      dup1\n      mload\n      swap1\n      0x20\n      add\n      swap1\n      tag_123\n      swap3\n      swap2\n      swap1\n      tag_108\n      jump\t// in\n    tag_123:\n      pop\n        /* \"ObjectAttributes.sol\":1723:1767  NewObjectAdded(obj_id, objects[obj_id].name) */\n      0x5e3dd01f6975d9a23fd7e096490c1357fc9b4936457e07c100751c9bfb87eec0\n        /* \"ObjectAttributes.sol\":1738:1744  obj_id */\n      dup2\n        /* \"ObjectAttributes.sol\":1746:1753  objects */\n      0x02\n        /* \"ObjectAttributes.sol\":1746:1761  objects[obj_id] */\n      0x00\n        /* \"ObjectAttributes.sol\":1754:1760  obj_id */\n      dup5\n        /* \"ObjectAttributes.sol\":1746:1761  objects[obj_id] */\n      dup2\n      mstore\n      0x20\n      add\n      swap1\n      dup2\n      mstore\n      0x20\n      add\n      0x00\n      keccak256\n        /* \"ObjectAttributes.sol\":1746:1766  objects[obj_id].name */\n      0x01\n      add\n        /* \"ObjectAttributes.sol\":1723:1767  NewObjectAdded(obj_id, objects[obj_id].name) */\n      mload(0x40)\n      tag_124\n      swap3\n      swap2\n      swap1\n      tag_125\n      jump\t// in\n    tag_124:\n      mload(0x40)\n      dup1\n      swap2\n      sub\n      swap1\n      log1\n        /* \"ObjectAttributes.sol\":1290:1775  {\r... */\n      pop\n        /* \"ObjectAttributes.sol\":1127:1775  function object_add(\r... */\n      pop\n      jump\t// out\n        /* \"ObjectAttributes.sol\":2985:4128  function change_attribs(\r... */\n    tag_31:\n        /* \"ObjectAttributes.sol\":544:549  admin */\n      0x00\n      dup1\n      sload\n      swap1\n      0x0100\n      exp\n      swap1\n      div\n      0xffffffffffffffffffffffffffffffffffffffff\n      and\n        /* \"ObjectAttributes.sol\":530:549  msg.sender == admin */\n      0xffffffffffffffffffffffffffffffffffffffff\n      and\n        /* \"ObjectAttributes.sol\":530:540  msg.sender */\n      caller\n        /* \"ObjectAttributes.sol\":530:549  msg.sender == admin */\n      0xffffffffffffffffffffffffffffffffffffffff\n      and\n      eq\n        /* \"ObjectAttributes.sol\":522:550  require(msg.sender == admin) */\n      tag_127\n      jumpi\n      0x00\n      dup1\n      revert\n    tag_127:\n        /* \"ObjectAttributes.sol\":3217:3223  obj_id */\n      dup2\n        /* \"ObjectAttributes.sol\":655:673  ObjectState.Active */\n      0x01\n        /* \"ObjectAttributes.sol\":630:673  objects[obj_id].state == ObjectState.Active */\n      0x03\n      dup2\n      gt\n      iszero\n      tag_129\n      jumpi\n      tag_130\n      tag_37\n      jump\t// in\n    tag_130:\n    tag_129:\n        /* \"ObjectAttributes.sol\":630:637  objects */\n      0x02\n        /* \"ObjectAttributes.sol\":630:645  objects[obj_id] */\n      0x00\n        /* \"ObjectAttributes.sol\":638:644  obj_id */\n      dup4\n        /* \"ObjectAttributes.sol\":630:645  objects[obj_id] */\n      dup2\n      mstore\n      0x20\n      add\n      swap1\n      dup2\n      mstore\n      0x20\n      add\n      0x00\n      keccak256\n        /* \"ObjectAttributes.sol\":630:651  objects[obj_id].state */\n      0x00\n      add\n      0x00\n      swap1\n      sload\n      swap1\n      0x0100\n      exp\n      swap1\n      div\n      0xff\n      and\n        /* \"ObjectAttributes.sol\":630:673  objects[obj_id].state == ObjectState.Active */\n      0x03\n      dup2\n      gt\n      iszero\n      tag_131\n      jumpi\n      tag_132\n      tag_37\n      jump\t// in\n    tag_132:\n    tag_131:\n      eq\n        /* \"ObjectAttributes.sol\":622:674  require(objects[obj_id].state == ObjectState.Active) */\n      tag_133\n      jumpi\n      0x00\n      dup1\n      revert\n    tag_133:\n        /* \"ObjectAttributes.sol\":3330:3353  bytes memory empty_test */\n      0x00\n        /* \"ObjectAttributes.sol\":3362:3369  obj_arg */\n      dup3\n        /* \"ObjectAttributes.sol\":3370:3371  0 */\n      0x00\n        /* \"ObjectAttributes.sol\":3362:3372  obj_arg[0] */\n      0x06\n      dup2\n      lt\n      tag_135\n      jumpi\n      tag_136\n      tag_106\n      jump\t// in\n    tag_136:\n    tag_135:\n      0x20\n      mul\n      add\n      mload\n        /* \"ObjectAttributes.sol\":3330:3373  bytes memory empty_test = bytes(obj_arg[0]) */\n      swap1\n      pop\n        /* \"ObjectAttributes.sol\":3409:3410  0 */\n      0x00\n        /* \"ObjectAttributes.sol\":3388:3398  empty_test */\n      dup2\n        /* \"ObjectAttributes.sol\":3388:3405  empty_test.length */\n      mload\n        /* \"ObjectAttributes.sol\":3388:3410  empty_test.length != 0 */\n      eq\n        /* \"ObjectAttributes.sol\":3384:3445  if (empty_test.length != 0) objects[obj_id].name = obj_arg[0] */\n      tag_137\n      jumpi\n        /* \"ObjectAttributes.sol\":3435:3442  obj_arg */\n      dup3\n        /* \"ObjectAttributes.sol\":3443:3444  0 */\n      0x00\n        /* \"ObjectAttributes.sol\":3435:3445  obj_arg[0] */\n      0x06\n      dup2\n      lt\n      tag_138\n      jumpi\n      tag_139\n      tag_106\n      jump\t// in\n    tag_139:\n    tag_138:\n      0x20\n      mul\n      add\n      mload\n        /* \"ObjectAttributes.sol\":3412:3419  objects */\n      0x02\n        /* \"ObjectAttributes.sol\":3412:3427  objects[obj_id] */\n      0x00\n        /* \"ObjectAttributes.sol\":3420:3426  obj_id */\n      dup7\n        /* \"ObjectAttributes.sol\":3412:3427  objects[obj_id] */\n      dup2\n      mstore\n      0x20\n      add\n      swap1\n      dup2\n      mstore\n      0x20\n      add\n      0x00\n      keccak256\n        /* \"ObjectAttributes.sol\":3412:3432  objects[obj_id].name */\n      0x01\n      add\n        /* \"ObjectAttributes.sol\":3412:3445  objects[obj_id].name = obj_arg[0] */\n      swap1\n      dup1\n      mload\n      swap1\n      0x20\n      add\n      swap1\n      tag_140\n      swap3\n      swap2\n      swap1\n      tag_108\n      jump\t// in\n    tag_140:\n      pop\n        /* \"ObjectAttributes.sol\":3384:3445  if (empty_test.length != 0) objects[obj_id].name = obj_arg[0] */\n    tag_137:\n        /* \"ObjectAttributes.sol\":3475:3482  obj_arg */\n      dup3\n        /* \"ObjectAttributes.sol\":3483:3484  1 */\n      0x01\n        /* \"ObjectAttributes.sol\":3475:3485  obj_arg[1] */\n      0x06\n      dup2\n      lt\n      tag_141\n      jumpi\n      tag_142\n      tag_106\n      jump\t// in\n    tag_142:\n    tag_141:\n      0x20\n      mul\n      add\n      mload\n        /* \"ObjectAttributes.sol\":3456:3486  empty_test = bytes(obj_arg[1]) */\n      swap1\n      pop\n        /* \"ObjectAttributes.sol\":3522:3523  0 */\n      0x00\n        /* \"ObjectAttributes.sol\":3501:3511  empty_test */\n      dup2\n        /* \"ObjectAttributes.sol\":3501:3518  empty_test.length */\n      mload\n        /* \"ObjectAttributes.sol\":3501:3523  empty_test.length != 0 */\n      eq\n        /* \"ObjectAttributes.sol\":3497:3560  if (empty_test.length != 0) objects[obj_id].campus = obj_arg[1] */\n      tag_143\n      jumpi\n        /* \"ObjectAttributes.sol\":3550:3557  obj_arg */\n      dup3\n        /* \"ObjectAttributes.sol\":3558:3559  1 */\n      0x01\n        /* \"ObjectAttributes.sol\":3550:3560  obj_arg[1] */\n      0x06\n      dup2\n      lt\n      tag_144\n      jumpi\n      tag_145\n      tag_106\n      jump\t// in\n    tag_145:\n    tag_144:\n      0x20\n      mul\n      add\n      mload\n        /* \"ObjectAttributes.sol\":3525:3532  objects */\n      0x02\n        /* \"ObjectAttributes.sol\":3525:3540  objects[obj_id] */\n      0x00\n        /* \"ObjectAttributes.sol\":3533:3539  obj_id */\n      dup7\n        /* \"ObjectAttributes.sol\":3525:3540  objects[obj_id] */\n      dup2\n      mstore\n      0x20\n      add\n      swap1\n      dup2\n      mstore\n      0x20\n      add\n      0x00\n      keccak256\n        /* \"ObjectAttributes.sol\":3525:3547  objects[obj_id].campus */\n      0x02\n      add\n        /* \"ObjectAttributes.sol\":3525:3560  objects[obj_id].campus = obj_arg[1] */\n      swap1\n      dup1\n      mload\n      swap1\n      0x20\n      add\n      swap1\n      tag_146\n      swap3\n      swap2\n      swap1\n      tag_108\n      jump\t// in\n    tag_146:\n      pop\n        /* \"ObjectAttributes.sol\":3497:3560  if (empty_test.length != 0) objects[obj_id].campus = obj_arg[1] */\n    tag_143:\n        /* \"ObjectAttributes.sol\":3590:3597  obj_arg */\n      dup3\n        /* \"ObjectAttributes.sol\":3598:3599  2 */\n      0x02\n        /* \"ObjectAttributes.sol\":3590:3600  obj_arg[2] */\n      0x06\n      dup2\n      lt\n      tag_147\n      jumpi\n      tag_148\n      tag_106\n      jump\t// in\n    tag_148:\n    tag_147:\n      0x20\n      mul\n      add\n      mload\n        /* \"ObjectAttributes.sol\":3571:3601  empty_test = bytes(obj_arg[2]) */\n      swap1\n      pop\n        /* \"ObjectAttributes.sol\":3637:3638  0 */\n      0x00\n        /* \"ObjectAttributes.sol\":3616:3626  empty_test */\n      dup2\n        /* \"ObjectAttributes.sol\":3616:3633  empty_test.length */\n      mload\n        /* \"ObjectAttributes.sol\":3616:3638  empty_test.length != 0 */\n      eq\n        /* \"ObjectAttributes.sol\":3612:3674  if (empty_test.length != 0) objects[obj_id].major = obj_arg[2] */\n      tag_149\n      jumpi\n        /* \"ObjectAttributes.sol\":3664:3671  obj_arg */\n      dup3\n        /* \"ObjectAttributes.sol\":3672:3673  2 */\n      0x02\n        /* \"ObjectAttributes.sol\":3664:3674  obj_arg[2] */\n      0x06\n      dup2\n      lt\n      tag_150\n      jumpi\n      tag_151\n      tag_106\n      jump\t// in\n    tag_151:\n    tag_150:\n      0x20\n      mul\n      add\n      mload\n        /* \"ObjectAttributes.sol\":3640:3647  objects */\n      0x02\n        /* \"ObjectAttributes.sol\":3640:3655  objects[obj_id] */\n      0x00\n        /* \"ObjectAttributes.sol\":3648:3654  obj_id */\n      dup7\n        /* \"ObjectAttributes.sol\":3640:3655  objects[obj_id] */\n      dup2\n      mstore\n      0x20\n      add\n      swap1\n      dup2\n      mstore\n      0x20\n      add\n      0x00\n      keccak256\n        /* \"ObjectAttributes.sol\":3640:3661  objects[obj_id].major */\n      0x03\n      add\n        /* \"ObjectAttributes.sol\":3640:3674  objects[obj_id].major = obj_arg[2] */\n      swap1\n      dup1\n      mload\n      swap1\n      0x20\n      add\n      swap1\n      tag_152\n      swap3\n      swap2\n      swap1\n      tag_108\n      jump\t// in\n    tag_152:\n      pop\n        /* \"ObjectAttributes.sol\":3612:3674  if (empty_test.length != 0) objects[obj_id].major = obj_arg[2] */\n    tag_149:\n        /* \"ObjectAttributes.sol\":3704:3711  obj_arg */\n      dup3\n        /* \"ObjectAttributes.sol\":3712:3713  3 */\n      0x03\n        /* \"ObjectAttributes.sol\":3704:3714  obj_arg[3] */\n      0x06\n      dup2\n      lt\n      tag_153\n      jumpi\n      tag_154\n      tag_106\n      jump\t// in\n    tag_154:\n    tag_153:\n      0x20\n      mul\n      add\n      mload\n        /* \"ObjectAttributes.sol\":3685:3715  empty_test = bytes(obj_arg[3]) */\n      swap1\n      pop\n        /* \"ObjectAttributes.sol\":3751:3752  0 */\n      0x00\n        /* \"ObjectAttributes.sol\":3730:3740  empty_test */\n      dup2\n        /* \"ObjectAttributes.sol\":3730:3747  empty_test.length */\n      mload\n        /* \"ObjectAttributes.sol\":3730:3752  empty_test.length != 0 */\n      eq\n        /* \"ObjectAttributes.sol\":3726:3787  if (empty_test.length != 0) objects[obj_id].dorm = obj_arg[3] */\n      tag_155\n      jumpi\n        /* \"ObjectAttributes.sol\":3777:3784  obj_arg */\n      dup3\n        /* \"ObjectAttributes.sol\":3785:3786  3 */\n      0x03\n        /* \"ObjectAttributes.sol\":3777:3787  obj_arg[3] */\n      0x06\n      dup2\n      lt\n      tag_156\n      jumpi\n      tag_157\n      tag_106\n      jump\t// in\n    tag_157:\n    tag_156:\n      0x20\n      mul\n      add\n      mload\n        /* \"ObjectAttributes.sol\":3754:3761  objects */\n      0x02\n        /* \"ObjectAttributes.sol\":3754:3769  objects[obj_id] */\n      0x00\n        /* \"ObjectAttributes.sol\":3762:3768  obj_id */\n      dup7\n        /* \"ObjectAttributes.sol\":3754:3769  objects[obj_id] */\n      dup2\n      mstore\n      0x20\n      add\n      swap1\n      dup2\n      mstore\n      0x20\n      add\n      0x00\n      keccak256\n        /* \"ObjectAttributes.sol\":3754:3774  objects[obj_id].dorm */\n      0x04\n      add\n        /* \"ObjectAttributes.sol\":3754:3787  objects[obj_id].dorm = obj_arg[3] */\n      swap1\n      dup1\n      mload\n      swap1\n      0x20\n      add\n      swap1\n      tag_158\n      swap3\n      swap2\n      swap1\n      tag_108\n      jump\t// in\n    tag_158:\n      pop\n        /* \"ObjectAttributes.sol\":3726:3787  if (empty_test.length != 0) objects[obj_id].dorm = obj_arg[3] */\n    tag_155:\n        /* \"ObjectAttributes.sol\":3817:3824  obj_arg */\n      dup3\n        /* \"ObjectAttributes.sol\":3825:3826  4 */\n      0x04\n        /* \"ObjectAttributes.sol\":3817:3827  obj_arg[4] */\n      0x06\n      dup2\n      lt\n      tag_159\n      jumpi\n      tag_160\n      tag_106\n      jump\t// in\n    tag_160:\n    tag_159:\n      0x20\n      mul\n      add\n      mload\n        /* \"ObjectAttributes.sol\":3798:3828  empty_test = bytes(obj_arg[4]) */\n      swap1\n      pop\n        /* \"ObjectAttributes.sol\":3864:3865  0 */\n      0x00\n        /* \"ObjectAttributes.sol\":3843:3853  empty_test */\n      dup2\n        /* \"ObjectAttributes.sol\":3843:3860  empty_test.length */\n      mload\n        /* \"ObjectAttributes.sol\":3843:3865  empty_test.length != 0 */\n      eq\n        /* \"ObjectAttributes.sol\":3839:3900  if (empty_test.length != 0) objects[obj_id].year = obj_arg[4] */\n      tag_161\n      jumpi\n        /* \"ObjectAttributes.sol\":3890:3897  obj_arg */\n      dup3\n        /* \"ObjectAttributes.sol\":3898:3899  4 */\n      0x04\n        /* \"ObjectAttributes.sol\":3890:3900  obj_arg[4] */\n      0x06\n      dup2\n      lt\n      tag_162\n      jumpi\n      tag_163\n      tag_106\n      jump\t// in\n    tag_163:\n    tag_162:\n      0x20\n      mul\n      add\n      mload\n        /* \"ObjectAttributes.sol\":3867:3874  objects */\n      0x02\n        /* \"ObjectAttributes.sol\":3867:3882  objects[obj_id] */\n      0x00\n        /* \"ObjectAttributes.sol\":3875:3881  obj_id */\n      dup7\n        /* \"ObjectAttributes.sol\":3867:3882  objects[obj_id] */\n      dup2\n      mstore\n      0x20\n      add\n      swap1\n      dup2\n      mstore\n      0x20\n      add\n      0x00\n      keccak256\n        /* \"ObjectAttributes.sol\":3867:3887  objects[obj_id].year */\n      0x05\n      add\n        /* \"ObjectAttributes.sol\":3867:3900  objects[obj_id].year = obj_arg[4] */\n      swap1\n      dup1\n      mload\n      swap1\n      0x20\n      add\n      swap1\n      tag_164\n      swap3\n      swap2\n      swap1\n      tag_108\n      jump\t// in\n    tag_164:\n      pop\n        /* \"ObjectAttributes.sol\":3839:3900  if (empty_test.length != 0) objects[obj_id].year = obj_arg[4] */\n    tag_161:\n        /* \"ObjectAttributes.sol\":3930:3937  obj_arg */\n      dup3\n        /* \"ObjectAttributes.sol\":3938:3939  5 */\n      0x05\n        /* \"ObjectAttributes.sol\":3930:3940  obj_arg[5] */\n      0x06\n      dup2\n      lt\n      tag_165\n      jumpi\n      tag_166\n      tag_106\n      jump\t// in\n    tag_166:\n    tag_165:\n      0x20\n      mul\n      add\n      mload\n        /* \"ObjectAttributes.sol\":3911:3941  empty_test = bytes(obj_arg[5]) */\n      swap1\n      pop\n        /* \"ObjectAttributes.sol\":3977:3978  0 */\n      0x00\n        /* \"ObjectAttributes.sol\":3956:3966  empty_test */\n      dup2\n        /* \"ObjectAttributes.sol\":3956:3973  empty_test.length */\n      mload\n        /* \"ObjectAttributes.sol\":3956:3978  empty_test.length != 0 */\n      eq\n        /* \"ObjectAttributes.sol\":3952:4018  if (empty_test.length != 0) objects[obj_id].studentID = obj_arg[5] */\n      tag_167\n      jumpi\n        /* \"ObjectAttributes.sol\":4008:4015  obj_arg */\n      dup3\n        /* \"ObjectAttributes.sol\":4016:4017  5 */\n      0x05\n        /* \"ObjectAttributes.sol\":4008:4018  obj_arg[5] */\n      0x06\n      dup2\n      lt\n      tag_168\n      jumpi\n      tag_169\n      tag_106\n      jump\t// in\n    tag_169:\n    tag_168:\n      0x20\n      mul\n      add\n      mload\n        /* \"ObjectAttributes.sol\":3980:3987  objects */\n      0x02\n        /* \"ObjectAttributes.sol\":3980:3995  objects[obj_id] */\n      0x00\n        /* \"ObjectAttributes.sol\":3988:3994  obj_id */\n      dup7\n        /* \"ObjectAttributes.sol\":3980:3995  objects[obj_id] */\n      dup2\n      mstore\n      0x20\n      add\n      swap1\n      dup2\n      mstore\n      0x20\n      add\n      0x00\n      keccak256\n        /* \"ObjectAttributes.sol\":3980:4005  objects[obj_id].studentID */\n      0x06\n      add\n        /* \"ObjectAttributes.sol\":3980:4018  objects[obj_id].studentID = obj_arg[5] */\n      swap1\n      dup1\n      mload\n      swap1\n      0x20\n      add\n      swap1\n      tag_170\n      swap3\n      swap2\n      swap1\n      tag_108\n      jump\t// in\n    tag_170:\n      pop\n        /* \"ObjectAttributes.sol\":3952:4018  if (empty_test.length != 0) objects[obj_id].studentID = obj_arg[5] */\n    tag_167:\n        /* \"ObjectAttributes.sol\":4099:4120  ObjectChanged(obj_id) */\n      0x164c2e58722dc4a6f8cf8c576a57c505a23385cf838d63f1f1b16979d549e8c8\n        /* \"ObjectAttributes.sol\":4113:4119  obj_id */\n      dup5\n        /* \"ObjectAttributes.sol\":4099:4120  ObjectChanged(obj_id) */\n      mload(0x40)\n      tag_171\n      swap2\n      swap1\n      tag_172\n      jump\t// in\n    tag_171:\n      mload(0x40)\n      dup1\n      swap2\n      sub\n      swap1\n      log1\n        /* \"ObjectAttributes.sol\":3230:4128  {\r... */\n      pop\n        /* \"ObjectAttributes.sol\":561:562  _ */\n      pop\n        /* \"ObjectAttributes.sol\":2985:4128  function change_attribs(\r... */\n      pop\n      pop\n      jump\t// out\n    tag_108:\n      dup3\n      dup1\n      sload\n      tag_173\n      swap1\n      tag_67\n      jump\t// in\n    tag_173:\n      swap1\n      0x00\n      mstore\n      keccak256(0x00, 0x20)\n      swap1\n      0x1f\n      add\n      0x20\n      swap1\n      div\n      dup2\n      add\n      swap3\n      dup3\n      tag_175\n      jumpi\n      0x00\n      dup6\n      sstore\n      jump(tag_174)\n    tag_175:\n      dup3\n      0x1f\n      lt\n      tag_176\n      jumpi\n      dup1\n      mload\n      not(0xff)\n      and\n      dup4\n      dup1\n      add\n      or\n      dup6\n      sstore\n      jump(tag_174)\n    tag_176:\n      dup3\n      dup1\n      add\n      0x01\n      add\n      dup6\n      sstore\n      dup3\n      iszero\n      tag_174\n      jumpi\n      swap2\n      dup3\n      add\n    tag_177:\n      dup3\n      dup2\n      gt\n      iszero\n      tag_178\n      jumpi\n      dup3\n      mload\n      dup3\n      sstore\n      swap2\n      0x20\n      add\n      swap2\n      swap1\n      0x01\n      add\n      swap1\n      jump(tag_177)\n    tag_178:\n    tag_174:\n      pop\n      swap1\n      pop\n      tag_179\n      swap2\n      swap1\n      tag_180\n      jump\t// in\n    tag_179:\n      pop\n      swap1\n      jump\t// out\n    tag_180:\n    tag_181:\n      dup1\n      dup3\n      gt\n      iszero\n      tag_182\n      jumpi\n      0x00\n      dup2\n      0x00\n      swap1\n      sstore\n      pop\n      0x01\n      add\n      jump(tag_181)\n    tag_182:\n      pop\n      swap1\n      jump\t// out\n        /* \"#utility.yul\":24:914   */\n    tag_184:\n        /* \"#utility.yul\":128:133   */\n      0x00\n        /* \"#utility.yul\":153:242   */\n      tag_186\n        /* \"#utility.yul\":169:241   */\n      tag_187\n        /* \"#utility.yul\":234:240   */\n      dup5\n        /* \"#utility.yul\":169:241   */\n      tag_188\n      jump\t// in\n    tag_187:\n        /* \"#utility.yul\":153:242   */\n      tag_189\n      jump\t// in\n    tag_186:\n        /* \"#utility.yul\":144:242   */\n      swap1\n      pop\n        /* \"#utility.yul\":262:267   */\n      dup1\n        /* \"#utility.yul\":288:294   */\n      dup3\n        /* \"#utility.yul\":338:341   */\n      dup6\n        /* \"#utility.yul\":330:334   */\n      0x20\n        /* \"#utility.yul\":322:328   */\n      dup7\n        /* \"#utility.yul\":318:335   */\n      mul\n        /* \"#utility.yul\":313:316   */\n      dup3\n        /* \"#utility.yul\":309:336   */\n      add\n        /* \"#utility.yul\":306:342   */\n      gt\n        /* \"#utility.yul\":303:446   */\n      iszero\n      tag_190\n      jumpi\n        /* \"#utility.yul\":357:436   */\n      tag_191\n      tag_192\n      jump\t// in\n    tag_191:\n        /* \"#utility.yul\":303:446   */\n    tag_190:\n        /* \"#utility.yul\":470:471   */\n      0x00\n        /* \"#utility.yul\":455:908   */\n    tag_193:\n        /* \"#utility.yul\":480:486   */\n      dup6\n        /* \"#utility.yul\":477:478   */\n      dup2\n        /* \"#utility.yul\":474:487   */\n      lt\n        /* \"#utility.yul\":455:908   */\n      iszero\n      tag_195\n      jumpi\n        /* \"#utility.yul\":562:565   */\n      dup2\n        /* \"#utility.yul\":549:566   */\n      calldataload\n        /* \"#utility.yul\":598:616   */\n      0xffffffffffffffff\n        /* \"#utility.yul\":585:596   */\n      dup2\n        /* \"#utility.yul\":582:617   */\n      gt\n        /* \"#utility.yul\":579:701   */\n      iszero\n      tag_196\n      jumpi\n        /* \"#utility.yul\":620:699   */\n      tag_197\n      tag_198\n      jump\t// in\n    tag_197:\n        /* \"#utility.yul\":579:701   */\n    tag_196:\n        /* \"#utility.yul\":744:755   */\n      dup1\n        /* \"#utility.yul\":736:742   */\n      dup7\n        /* \"#utility.yul\":732:756   */\n      add\n        /* \"#utility.yul\":782:829   */\n      tag_199\n        /* \"#utility.yul\":825:828   */\n      dup10\n        /* \"#utility.yul\":813:823   */\n      dup3\n        /* \"#utility.yul\":782:829   */\n      tag_200\n      jump\t// in\n    tag_199:\n        /* \"#utility.yul\":777:780   */\n      dup6\n        /* \"#utility.yul\":770:830   */\n      mstore\n        /* \"#utility.yul\":859:863   */\n      0x20\n        /* \"#utility.yul\":854:857   */\n      dup6\n        /* \"#utility.yul\":850:864   */\n      add\n        /* \"#utility.yul\":843:864   */\n      swap5\n      pop\n        /* \"#utility.yul\":893:897   */\n      0x20\n        /* \"#utility.yul\":888:891   */\n      dup5\n        /* \"#utility.yul\":884:898   */\n      add\n        /* \"#utility.yul\":877:898   */\n      swap4\n      pop\n        /* \"#utility.yul\":515:908   */\n      pop\n      pop\n        /* \"#utility.yul\":502:503   */\n      0x01\n        /* \"#utility.yul\":499:500   */\n      dup2\n        /* \"#utility.yul\":495:504   */\n      add\n        /* \"#utility.yul\":490:504   */\n      swap1\n      pop\n        /* \"#utility.yul\":455:908   */\n      jump(tag_193)\n    tag_195:\n        /* \"#utility.yul\":459:473   */\n      pop\n        /* \"#utility.yul\":134:914   */\n      pop\n      pop\n        /* \"#utility.yul\":24:914   */\n      swap4\n      swap3\n      pop\n      pop\n      pop\n      jump\t// out\n        /* \"#utility.yul\":920:1332   */\n    tag_201:\n        /* \"#utility.yul\":998:1003   */\n      0x00\n        /* \"#utility.yul\":1023:1089   */\n      tag_203\n        /* \"#utility.yul\":1039:1088   */\n      tag_204\n        /* \"#utility.yul\":1081:1087   */\n      dup5\n        /* \"#utility.yul\":1039:1088   */\n      tag_205\n      jump\t// in\n    tag_204:\n        /* \"#utility.yul\":1023:1089   */\n      tag_189\n      jump\t// in\n    tag_203:\n        /* \"#utility.yul\":1014:1089   */\n      swap1\n      pop\n        /* \"#utility.yul\":1112:1118   */\n      dup3\n        /* \"#utility.yul\":1105:1110   */\n      dup2\n        /* \"#utility.yul\":1098:1119   */\n      mstore\n        /* \"#utility.yul\":1150:1154   */\n      0x20\n        /* \"#utility.yul\":1143:1148   */\n      dup2\n        /* \"#utility.yul\":1139:1155   */\n      add\n        /* \"#utility.yul\":1188:1191   */\n      dup5\n        /* \"#utility.yul\":1179:1185   */\n      dup5\n        /* \"#utility.yul\":1174:1177   */\n      dup5\n        /* \"#utility.yul\":1170:1186   */\n      add\n        /* \"#utility.yul\":1167:1192   */\n      gt\n        /* \"#utility.yul\":1164:1276   */\n      iszero\n      tag_206\n      jumpi\n        /* \"#utility.yul\":1195:1274   */\n      tag_207\n      tag_208\n      jump\t// in\n    tag_207:\n        /* \"#utility.yul\":1164:1276   */\n    tag_206:\n        /* \"#utility.yul\":1285:1326   */\n      tag_209\n        /* \"#utility.yul\":1319:1325   */\n      dup5\n        /* \"#utility.yul\":1314:1317   */\n      dup3\n        /* \"#utility.yul\":1309:1312   */\n      dup6\n        /* \"#utility.yul\":1285:1326   */\n      tag_210\n      jump\t// in\n    tag_209:\n        /* \"#utility.yul\":1004:1332   */\n      pop\n        /* \"#utility.yul\":920:1332   */\n      swap4\n      swap3\n      pop\n      pop\n      pop\n      jump\t// out\n        /* \"#utility.yul\":1355:1714   */\n    tag_211:\n        /* \"#utility.yul\":1434:1439   */\n      0x00\n        /* \"#utility.yul\":1483:1486   */\n      dup3\n        /* \"#utility.yul\":1476:1480   */\n      0x1f\n        /* \"#utility.yul\":1468:1474   */\n      dup4\n        /* \"#utility.yul\":1464:1481   */\n      add\n        /* \"#utility.yul\":1460:1487   */\n      slt\n        /* \"#utility.yul\":1450:1572   */\n      tag_213\n      jumpi\n        /* \"#utility.yul\":1491:1570   */\n      tag_214\n      tag_198\n      jump\t// in\n    tag_214:\n        /* \"#utility.yul\":1450:1572   */\n    tag_213:\n        /* \"#utility.yul\":1595:1599   */\n      0x06\n        /* \"#utility.yul\":1617:1708   */\n      tag_215\n        /* \"#utility.yul\":1704:1707   */\n      dup5\n        /* \"#utility.yul\":1696:1702   */\n      dup3\n        /* \"#utility.yul\":1688:1694   */\n      dup6\n        /* \"#utility.yul\":1617:1708   */\n      tag_184\n      jump\t// in\n    tag_215:\n        /* \"#utility.yul\":1608:1708   */\n      swap2\n      pop\n        /* \"#utility.yul\":1440:1714   */\n      pop\n        /* \"#utility.yul\":1355:1714   */\n      swap3\n      swap2\n      pop\n      pop\n      jump\t// out\n        /* \"#utility.yul\":1734:2074   */\n    tag_200:\n        /* \"#utility.yul\":1790:1795   */\n      0x00\n        /* \"#utility.yul\":1839:1842   */\n      dup3\n        /* \"#utility.yul\":1832:1836   */\n      0x1f\n        /* \"#utility.yul\":1824:1830   */\n      dup4\n        /* \"#utility.yul\":1820:1837   */\n      add\n        /* \"#utility.yul\":1816:1843   */\n      slt\n        /* \"#utility.yul\":1806:1928   */\n      tag_217\n      jumpi\n        /* \"#utility.yul\":1847:1926   */\n      tag_218\n      tag_198\n      jump\t// in\n    tag_218:\n        /* \"#utility.yul\":1806:1928   */\n    tag_217:\n        /* \"#utility.yul\":1964:1970   */\n      dup2\n        /* \"#utility.yul\":1951:1971   */\n      calldataload\n        /* \"#utility.yul\":1989:2068   */\n      tag_219\n        /* \"#utility.yul\":2064:2067   */\n      dup5\n        /* \"#utility.yul\":2056:2062   */\n      dup3\n        /* \"#utility.yul\":2049:2053   */\n      0x20\n        /* \"#utility.yul\":2041:2047   */\n      dup7\n        /* \"#utility.yul\":2037:2054   */\n      add\n        /* \"#utility.yul\":1989:2068   */\n      tag_201\n      jump\t// in\n    tag_219:\n        /* \"#utility.yul\":1980:2068   */\n      swap2\n      pop\n        /* \"#utility.yul\":1796:2074   */\n      pop\n        /* \"#utility.yul\":1734:2074   */\n      swap3\n      swap2\n      pop\n      pop\n      jump\t// out\n        /* \"#utility.yul\":2080:2219   */\n    tag_220:\n        /* \"#utility.yul\":2126:2131   */\n      0x00\n        /* \"#utility.yul\":2164:2170   */\n      dup2\n        /* \"#utility.yul\":2151:2171   */\n      calldataload\n        /* \"#utility.yul\":2142:2171   */\n      swap1\n      pop\n        /* \"#utility.yul\":2180:2213   */\n      tag_222\n        /* \"#utility.yul\":2207:2212   */\n      dup2\n        /* \"#utility.yul\":2180:2213   */\n      tag_223\n      jump\t// in\n    tag_222:\n        /* \"#utility.yul\":2080:2219   */\n      swap3\n      swap2\n      pop\n      pop\n      jump\t// out\n        /* \"#utility.yul\":2225:2780   */\n    tag_26:\n        /* \"#utility.yul\":2317:2323   */\n      0x00\n        /* \"#utility.yul\":2366:2368   */\n      0x20\n        /* \"#utility.yul\":2354:2363   */\n      dup3\n        /* \"#utility.yul\":2345:2352   */\n      dup5\n        /* \"#utility.yul\":2341:2364   */\n      sub\n        /* \"#utility.yul\":2337:2369   */\n      slt\n        /* \"#utility.yul\":2334:2453   */\n      iszero\n      tag_225\n      jumpi\n        /* \"#utility.yul\":2372:2451   */\n      tag_226\n      tag_227\n      jump\t// in\n    tag_226:\n        /* \"#utility.yul\":2334:2453   */\n    tag_225:\n        /* \"#utility.yul\":2520:2521   */\n      0x00\n        /* \"#utility.yul\":2509:2518   */\n      dup3\n        /* \"#utility.yul\":2505:2522   */\n      add\n        /* \"#utility.yul\":2492:2523   */\n      calldataload\n        /* \"#utility.yul\":2550:2568   */\n      0xffffffffffffffff\n        /* \"#utility.yul\":2542:2548   */\n      dup2\n        /* \"#utility.yul\":2539:2569   */\n      gt\n        /* \"#utility.yul\":2536:2653   */\n      iszero\n      tag_228\n      jumpi\n        /* \"#utility.yul\":2572:2651   */\n      tag_229\n      tag_230\n      jump\t// in\n    tag_229:\n        /* \"#utility.yul\":2536:2653   */\n    tag_228:\n        /* \"#utility.yul\":2677:2763   */\n      tag_231\n        /* \"#utility.yul\":2755:2762   */\n      dup5\n        /* \"#utility.yul\":2746:2752   */\n      dup3\n        /* \"#utility.yul\":2735:2744   */\n      dup6\n        /* \"#utility.yul\":2731:2753   */\n      add\n        /* \"#utility.yul\":2677:2763   */\n      tag_211\n      jump\t// in\n    tag_231:\n        /* \"#utility.yul\":2667:2763   */\n      swap2\n      pop\n        /* \"#utility.yul\":2463:2773   */\n      pop\n        /* \"#utility.yul\":2225:2780   */\n      swap3\n      swap2\n      pop\n      pop\n      jump\t// out\n        /* \"#utility.yul\":2786:3115   */\n    tag_11:\n        /* \"#utility.yul\":2845:2851   */\n      0x00\n        /* \"#utility.yul\":2894:2896   */\n      0x20\n        /* \"#utility.yul\":2882:2891   */\n      dup3\n        /* \"#utility.yul\":2873:2880   */\n      dup5\n        /* \"#utility.yul\":2869:2892   */\n      sub\n        /* \"#utility.yul\":2865:2897   */\n      slt\n        /* \"#utility.yul\":2862:2981   */\n      iszero\n      tag_233\n      jumpi\n        /* \"#utility.yul\":2900:2979   */\n      tag_234\n      tag_227\n      jump\t// in\n    tag_234:\n        /* \"#utility.yul\":2862:2981   */\n    tag_233:\n        /* \"#utility.yul\":3020:3021   */\n      0x00\n        /* \"#utility.yul\":3045:3098   */\n      tag_235\n        /* \"#utility.yul\":3090:3097   */\n      dup5\n        /* \"#utility.yul\":3081:3087   */\n      dup3\n        /* \"#utility.yul\":3070:3079   */\n      dup6\n        /* \"#utility.yul\":3066:3088   */\n      add\n        /* \"#utility.yul\":3045:3098   */\n      tag_220\n      jump\t// in\n    tag_235:\n        /* \"#utility.yul\":3035:3098   */\n      swap2\n      pop\n        /* \"#utility.yul\":2991:3108   */\n      pop\n        /* \"#utility.yul\":2786:3115   */\n      swap3\n      swap2\n      pop\n      pop\n      jump\t// out\n        /* \"#utility.yul\":3121:3821   */\n    tag_30:\n        /* \"#utility.yul\":3222:3228   */\n      0x00\n        /* \"#utility.yul\":3230:3236   */\n      dup1\n        /* \"#utility.yul\":3279:3281   */\n      0x40\n        /* \"#utility.yul\":3267:3276   */\n      dup4\n        /* \"#utility.yul\":3258:3265   */\n      dup6\n        /* \"#utility.yul\":3254:3277   */\n      sub\n        /* \"#utility.yul\":3250:3282   */\n      slt\n        /* \"#utility.yul\":3247:3366   */\n      iszero\n      tag_237\n      jumpi\n        /* \"#utility.yul\":3285:3364   */\n      tag_238\n      tag_227\n      jump\t// in\n    tag_238:\n        /* \"#utility.yul\":3247:3366   */\n    tag_237:\n        /* \"#utility.yul\":3405:3406   */\n      0x00\n        /* \"#utility.yul\":3430:3483   */\n      tag_239\n        /* \"#utility.yul\":3475:3482   */\n      dup6\n        /* \"#utility.yul\":3466:3472   */\n      dup3\n        /* \"#utility.yul\":3455:3464   */\n      dup7\n        /* \"#utility.yul\":3451:3473   */\n      add\n        /* \"#utility.yul\":3430:3483   */\n      tag_220\n      jump\t// in\n    tag_239:\n        /* \"#utility.yul\":3420:3483   */\n      swap3\n      pop\n        /* \"#utility.yul\":3376:3493   */\n      pop\n        /* \"#utility.yul\":3560:3562   */\n      0x20\n        /* \"#utility.yul\":3549:3558   */\n      dup4\n        /* \"#utility.yul\":3545:3563   */\n      add\n        /* \"#utility.yul\":3532:3564   */\n      calldataload\n        /* \"#utility.yul\":3591:3609   */\n      0xffffffffffffffff\n        /* \"#utility.yul\":3583:3589   */\n      dup2\n        /* \"#utility.yul\":3580:3610   */\n      gt\n        /* \"#utility.yul\":3577:3694   */\n      iszero\n      tag_240\n      jumpi\n        /* \"#utility.yul\":3613:3692   */\n      tag_241\n      tag_230\n      jump\t// in\n    tag_241:\n        /* \"#utility.yul\":3577:3694   */\n    tag_240:\n        /* \"#utility.yul\":3718:3804   */\n      tag_242\n        /* \"#utility.yul\":3796:3803   */\n      dup6\n        /* \"#utility.yul\":3787:3793   */\n      dup3\n        /* \"#utility.yul\":3776:3785   */\n      dup7\n        /* \"#utility.yul\":3772:3794   */\n      add\n        /* \"#utility.yul\":3718:3804   */\n      tag_211\n      jump\t// in\n    tag_242:\n        /* \"#utility.yul\":3708:3804   */\n      swap2\n      pop\n        /* \"#utility.yul\":3503:3814   */\n      pop\n        /* \"#utility.yul\":3121:3821   */\n      swap3\n      pop\n      swap3\n      swap1\n      pop\n      jump\t// out\n        /* \"#utility.yul\":3827:3980   */\n    tag_243:\n        /* \"#utility.yul\":3925:3973   */\n      tag_245\n        /* \"#utility.yul\":3967:3972   */\n      dup2\n        /* \"#utility.yul\":3925:3973   */\n      tag_246\n      jump\t// in\n    tag_245:\n        /* \"#utility.yul\":3920:3923   */\n      dup3\n        /* \"#utility.yul\":3913:3974   */\n      mstore\n        /* \"#utility.yul\":3827:3980   */\n      pop\n      pop\n      jump\t// out\n        /* \"#utility.yul\":3986:4350   */\n    tag_247:\n        /* \"#utility.yul\":4074:4077   */\n      0x00\n        /* \"#utility.yul\":4102:4141   */\n      tag_249\n        /* \"#utility.yul\":4135:4140   */\n      dup3\n        /* \"#utility.yul\":4102:4141   */\n      tag_250\n      jump\t// in\n    tag_249:\n        /* \"#utility.yul\":4157:4228   */\n      tag_251\n        /* \"#utility.yul\":4221:4227   */\n      dup2\n        /* \"#utility.yul\":4216:4219   */\n      dup6\n        /* \"#utility.yul\":4157:4228   */\n      tag_252\n      jump\t// in\n    tag_251:\n        /* \"#utility.yul\":4150:4228   */\n      swap4\n      pop\n        /* \"#utility.yul\":4237:4289   */\n      tag_253\n        /* \"#utility.yul\":4282:4288   */\n      dup2\n        /* \"#utility.yul\":4277:4280   */\n      dup6\n        /* \"#utility.yul\":4270:4274   */\n      0x20\n        /* \"#utility.yul\":4263:4268   */\n      dup7\n        /* \"#utility.yul\":4259:4275   */\n      add\n        /* \"#utility.yul\":4237:4289   */\n      tag_254\n      jump\t// in\n    tag_253:\n        /* \"#utility.yul\":4314:4343   */\n      tag_255\n        /* \"#utility.yul\":4336:4342   */\n      dup2\n        /* \"#utility.yul\":4314:4343   */\n      tag_256\n      jump\t// in\n    tag_255:\n        /* \"#utility.yul\":4309:4312   */\n      dup5\n        /* \"#utility.yul\":4305:4344   */\n      add\n        /* \"#utility.yul\":4298:4344   */\n      swap2\n      pop\n        /* \"#utility.yul\":4078:4350   */\n      pop\n        /* \"#utility.yul\":3986:4350   */\n      swap3\n      swap2\n      pop\n      pop\n      jump\t// out\n        /* \"#utility.yul\":4380:5182   */\n    tag_257:\n        /* \"#utility.yul\":4465:4468   */\n      0x00\n        /* \"#utility.yul\":4502:4507   */\n      dup2\n        /* \"#utility.yul\":4496:4508   */\n      sload\n        /* \"#utility.yul\":4531:4567   */\n      tag_259\n        /* \"#utility.yul\":4557:4566   */\n      dup2\n        /* \"#utility.yul\":4531:4567   */\n      tag_67\n      jump\t// in\n    tag_259:\n        /* \"#utility.yul\":4583:4654   */\n      tag_260\n        /* \"#utility.yul\":4647:4653   */\n      dup2\n        /* \"#utility.yul\":4642:4645   */\n      dup7\n        /* \"#utility.yul\":4583:4654   */\n      tag_252\n      jump\t// in\n    tag_260:\n        /* \"#utility.yul\":4576:4654   */\n      swap5\n      pop\n        /* \"#utility.yul\":4685:4686   */\n      0x01\n        /* \"#utility.yul\":4674:4683   */\n      dup3\n        /* \"#utility.yul\":4670:4687   */\n      and\n        /* \"#utility.yul\":4701:4702   */\n      0x00\n        /* \"#utility.yul\":4696:4831   */\n      dup2\n      eq\n      tag_262\n      jumpi\n        /* \"#utility.yul\":4845:4846   */\n      0x01\n        /* \"#utility.yul\":4840:5176   */\n      dup2\n      eq\n      tag_263\n      jumpi\n        /* \"#utility.yul\":4663:5176   */\n      jump(tag_261)\n        /* \"#utility.yul\":4696:4831   */\n    tag_262:\n        /* \"#utility.yul\":4780:4784   */\n      0xff\n        /* \"#utility.yul\":4776:4785   */\n      not\n        /* \"#utility.yul\":4765:4774   */\n      dup4\n        /* \"#utility.yul\":4761:4786   */\n      and\n        /* \"#utility.yul\":4756:4759   */\n      dup7\n        /* \"#utility.yul\":4749:4787   */\n      mstore\n        /* \"#utility.yul\":4816:4820   */\n      0x20\n        /* \"#utility.yul\":4811:4814   */\n      dup7\n        /* \"#utility.yul\":4807:4821   */\n      add\n        /* \"#utility.yul\":4800:4821   */\n      swap4\n      pop\n        /* \"#utility.yul\":4696:4831   */\n      jump(tag_261)\n        /* \"#utility.yul\":4840:5176   */\n    tag_263:\n        /* \"#utility.yul\":4907:4945   */\n      tag_264\n        /* \"#utility.yul\":4939:4944   */\n      dup6\n        /* \"#utility.yul\":4907:4945   */\n      tag_265\n      jump\t// in\n    tag_264:\n        /* \"#utility.yul\":4967:4968   */\n      0x00\n        /* \"#utility.yul\":4981:5135   */\n    tag_266:\n        /* \"#utility.yul\":4995:5001   */\n      dup4\n        /* \"#utility.yul\":4992:4993   */\n      dup2\n        /* \"#utility.yul\":4989:5002   */\n      lt\n        /* \"#utility.yul\":4981:5135   */\n      iszero\n      tag_268\n      jumpi\n        /* \"#utility.yul\":5069:5076   */\n      dup2\n        /* \"#utility.yul\":5063:5077   */\n      sload\n        /* \"#utility.yul\":5059:5060   */\n      dup2\n        /* \"#utility.yul\":5054:5057   */\n      dup10\n        /* \"#utility.yul\":5050:5061   */\n      add\n        /* \"#utility.yul\":5043:5078   */\n      mstore\n        /* \"#utility.yul\":5119:5120   */\n      0x01\n        /* \"#utility.yul\":5110:5117   */\n      dup3\n        /* \"#utility.yul\":5106:5121   */\n      add\n        /* \"#utility.yul\":5095:5121   */\n      swap2\n      pop\n        /* \"#utility.yul\":5017:5021   */\n      0x20\n        /* \"#utility.yul\":5014:5015   */\n      dup2\n        /* \"#utility.yul\":5010:5022   */\n      add\n        /* \"#utility.yul\":5005:5022   */\n      swap1\n      pop\n        /* \"#utility.yul\":4981:5135   */\n      jump(tag_266)\n    tag_268:\n        /* \"#utility.yul\":5164:5165   */\n      dup1\n        /* \"#utility.yul\":5159:5162   */\n      dup9\n        /* \"#utility.yul\":5155:5166   */\n      add\n        /* \"#utility.yul\":5148:5166   */\n      swap6\n      pop\n        /* \"#utility.yul\":4847:5176   */\n      pop\n      pop\n        /* \"#utility.yul\":4663:5176   */\n    tag_261:\n      pop\n        /* \"#utility.yul\":4469:5182   */\n      pop\n      pop\n        /* \"#utility.yul\":4380:5182   */\n      swap3\n      swap2\n      pop\n      pop\n      jump\t// out\n        /* \"#utility.yul\":5188:5306   */\n    tag_269:\n        /* \"#utility.yul\":5275:5299   */\n      tag_271\n        /* \"#utility.yul\":5293:5298   */\n      dup2\n        /* \"#utility.yul\":5275:5299   */\n      tag_272\n      jump\t// in\n    tag_271:\n        /* \"#utility.yul\":5270:5273   */\n      dup3\n        /* \"#utility.yul\":5263:5300   */\n      mstore\n        /* \"#utility.yul\":5188:5306   */\n      pop\n      pop\n      jump\t// out\n        /* \"#utility.yul\":5312:6766   */\n    tag_23:\n        /* \"#utility.yul\":5704:5708   */\n      0x00\n        /* \"#utility.yul\":5742:5745   */\n      0xe0\n        /* \"#utility.yul\":5731:5740   */\n      dup3\n        /* \"#utility.yul\":5727:5746   */\n      add\n        /* \"#utility.yul\":5719:5746   */\n      swap1\n      pop\n        /* \"#utility.yul\":5756:5838   */\n      tag_274\n        /* \"#utility.yul\":5835:5836   */\n      0x00\n        /* \"#utility.yul\":5824:5833   */\n      dup4\n        /* \"#utility.yul\":5820:5837   */\n      add\n        /* \"#utility.yul\":5811:5817   */\n      dup11\n        /* \"#utility.yul\":5756:5838   */\n      tag_243\n      jump\t// in\n    tag_274:\n        /* \"#utility.yul\":5885:5894   */\n      dup2\n        /* \"#utility.yul\":5879:5883   */\n      dup2\n        /* \"#utility.yul\":5875:5895   */\n      sub\n        /* \"#utility.yul\":5870:5872   */\n      0x20\n        /* \"#utility.yul\":5859:5868   */\n      dup4\n        /* \"#utility.yul\":5855:5873   */\n      add\n        /* \"#utility.yul\":5848:5896   */\n      mstore\n        /* \"#utility.yul\":5913:5991   */\n      tag_275\n        /* \"#utility.yul\":5986:5990   */\n      dup2\n        /* \"#utility.yul\":5977:5983   */\n      dup10\n        /* \"#utility.yul\":5913:5991   */\n      tag_247\n      jump\t// in\n    tag_275:\n        /* \"#utility.yul\":5905:5991   */\n      swap1\n      pop\n        /* \"#utility.yul\":6038:6047   */\n      dup2\n        /* \"#utility.yul\":6032:6036   */\n      dup2\n        /* \"#utility.yul\":6028:6048   */\n      sub\n        /* \"#utility.yul\":6023:6025   */\n      0x40\n        /* \"#utility.yul\":6012:6021   */\n      dup4\n        /* \"#utility.yul\":6008:6026   */\n      add\n        /* \"#utility.yul\":6001:6049   */\n      mstore\n        /* \"#utility.yul\":6066:6144   */\n      tag_276\n        /* \"#utility.yul\":6139:6143   */\n      dup2\n        /* \"#utility.yul\":6130:6136   */\n      dup9\n        /* \"#utility.yul\":6066:6144   */\n      tag_247\n      jump\t// in\n    tag_276:\n        /* \"#utility.yul\":6058:6144   */\n      swap1\n      pop\n        /* \"#utility.yul\":6191:6200   */\n      dup2\n        /* \"#utility.yul\":6185:6189   */\n      dup2\n        /* \"#utility.yul\":6181:6201   */\n      sub\n        /* \"#utility.yul\":6176:6178   */\n      0x60\n        /* \"#utility.yul\":6165:6174   */\n      dup4\n        /* \"#utility.yul\":6161:6179   */\n      add\n        /* \"#utility.yul\":6154:6202   */\n      mstore\n        /* \"#utility.yul\":6219:6297   */\n      tag_277\n        /* \"#utility.yul\":6292:6296   */\n      dup2\n        /* \"#utility.yul\":6283:6289   */\n      dup8\n        /* \"#utility.yul\":6219:6297   */\n      tag_247\n      jump\t// in\n    tag_277:\n        /* \"#utility.yul\":6211:6297   */\n      swap1\n      pop\n        /* \"#utility.yul\":6345:6354   */\n      dup2\n        /* \"#utility.yul\":6339:6343   */\n      dup2\n        /* \"#utility.yul\":6335:6355   */\n      sub\n        /* \"#utility.yul\":6329:6332   */\n      0x80\n        /* \"#utility.yul\":6318:6327   */\n      dup4\n        /* \"#utility.yul\":6314:6333   */\n      add\n        /* \"#utility.yul\":6307:6356   */\n      mstore\n        /* \"#utility.yul\":6373:6451   */\n      tag_278\n        /* \"#utility.yul\":6446:6450   */\n      dup2\n        /* \"#utility.yul\":6437:6443   */\n      dup7\n        /* \"#utility.yul\":6373:6451   */\n      tag_247\n      jump\t// in\n    tag_278:\n        /* \"#utility.yul\":6365:6451   */\n      swap1\n      pop\n        /* \"#utility.yul\":6499:6508   */\n      dup2\n        /* \"#utility.yul\":6493:6497   */\n      dup2\n        /* \"#utility.yul\":6489:6509   */\n      sub\n        /* \"#utility.yul\":6483:6486   */\n      0xa0\n        /* \"#utility.yul\":6472:6481   */\n      dup4\n        /* \"#utility.yul\":6468:6487   */\n      add\n        /* \"#utility.yul\":6461:6510   */\n      mstore\n        /* \"#utility.yul\":6527:6605   */\n      tag_279\n        /* \"#utility.yul\":6600:6604   */\n      dup2\n        /* \"#utility.yul\":6591:6597   */\n      dup6\n        /* \"#utility.yul\":6527:6605   */\n      tag_247\n      jump\t// in\n    tag_279:\n        /* \"#utility.yul\":6519:6605   */\n      swap1\n      pop\n        /* \"#utility.yul\":6653:6662   */\n      dup2\n        /* \"#utility.yul\":6647:6651   */\n      dup2\n        /* \"#utility.yul\":6643:6663   */\n      sub\n        /* \"#utility.yul\":6637:6640   */\n      0xc0\n        /* \"#utility.yul\":6626:6635   */\n      dup4\n        /* \"#utility.yul\":6622:6641   */\n      add\n        /* \"#utility.yul\":6615:6664   */\n      mstore\n        /* \"#utility.yul\":6681:6759   */\n      tag_280\n        /* \"#utility.yul\":6754:6758   */\n      dup2\n        /* \"#utility.yul\":6745:6751   */\n      dup5\n        /* \"#utility.yul\":6681:6759   */\n      tag_247\n      jump\t// in\n    tag_280:\n        /* \"#utility.yul\":6673:6759   */\n      swap1\n      pop\n        /* \"#utility.yul\":5312:6766   */\n      swap9\n      swap8\n      pop\n      pop\n      pop\n      pop\n      pop\n      pop\n      pop\n      pop\n      jump\t// out\n        /* \"#utility.yul\":6772:6994   */\n    tag_172:\n        /* \"#utility.yul\":6865:6869   */\n      0x00\n        /* \"#utility.yul\":6903:6905   */\n      0x20\n        /* \"#utility.yul\":6892:6901   */\n      dup3\n        /* \"#utility.yul\":6888:6906   */\n      add\n        /* \"#utility.yul\":6880:6906   */\n      swap1\n      pop\n        /* \"#utility.yul\":6916:6987   */\n      tag_282\n        /* \"#utility.yul\":6984:6985   */\n      0x00\n        /* \"#utility.yul\":6973:6982   */\n      dup4\n        /* \"#utility.yul\":6969:6986   */\n      add\n        /* \"#utility.yul\":6960:6966   */\n      dup5\n        /* \"#utility.yul\":6916:6987   */\n      tag_269\n      jump\t// in\n    tag_282:\n        /* \"#utility.yul\":6772:6994   */\n      swap3\n      swap2\n      pop\n      pop\n      jump\t// out\n        /* \"#utility.yul\":7000:7417   */\n    tag_125:\n        /* \"#utility.yul\":7138:7142   */\n      0x00\n        /* \"#utility.yul\":7176:7178   */\n      0x40\n        /* \"#utility.yul\":7165:7174   */\n      dup3\n        /* \"#utility.yul\":7161:7179   */\n      add\n        /* \"#utility.yul\":7153:7179   */\n      swap1\n      pop\n        /* \"#utility.yul\":7189:7260   */\n      tag_284\n        /* \"#utility.yul\":7257:7258   */\n      0x00\n        /* \"#utility.yul\":7246:7255   */\n      dup4\n        /* \"#utility.yul\":7242:7259   */\n      add\n        /* \"#utility.yul\":7233:7239   */\n      dup6\n        /* \"#utility.yul\":7189:7260   */\n      tag_269\n      jump\t// in\n    tag_284:\n        /* \"#utility.yul\":7307:7316   */\n      dup2\n        /* \"#utility.yul\":7301:7305   */\n      dup2\n        /* \"#utility.yul\":7297:7317   */\n      sub\n        /* \"#utility.yul\":7292:7294   */\n      0x20\n        /* \"#utility.yul\":7281:7290   */\n      dup4\n        /* \"#utility.yul\":7277:7295   */\n      add\n        /* \"#utility.yul\":7270:7318   */\n      mstore\n        /* \"#utility.yul\":7335:7410   */\n      tag_285\n        /* \"#utility.yul\":7405:7409   */\n      dup2\n        /* \"#utility.yul\":7396:7402   */\n      dup5\n        /* \"#utility.yul\":7335:7410   */\n      tag_257\n      jump\t// in\n    tag_285:\n        /* \"#utility.yul\":7327:7410   */\n      swap1\n      pop\n        /* \"#utility.yul\":7000:7417   */\n      swap4\n      swap3\n      pop\n      pop\n      pop\n      jump\t// out\n        /* \"#utility.yul\":7423:7552   */\n    tag_189:\n        /* \"#utility.yul\":7457:7463   */\n      0x00\n        /* \"#utility.yul\":7484:7504   */\n      tag_287\n      tag_288\n      jump\t// in\n    tag_287:\n        /* \"#utility.yul\":7474:7504   */\n      swap1\n      pop\n        /* \"#utility.yul\":7513:7546   */\n      tag_289\n        /* \"#utility.yul\":7541:7545   */\n      dup3\n        /* \"#utility.yul\":7533:7539   */\n      dup3\n        /* \"#utility.yul\":7513:7546   */\n      tag_290\n      jump\t// in\n    tag_289:\n        /* \"#utility.yul\":7423:7552   */\n      swap2\n      swap1\n      pop\n      jump\t// out\n        /* \"#utility.yul\":7558:7633   */\n    tag_288:\n        /* \"#utility.yul\":7591:7597   */\n      0x00\n        /* \"#utility.yul\":7624:7626   */\n      0x40\n        /* \"#utility.yul\":7618:7627   */\n      mload\n        /* \"#utility.yul\":7608:7627   */\n      swap1\n      pop\n        /* \"#utility.yul\":7558:7633   */\n      swap1\n      jump\t// out\n        /* \"#utility.yul\":7639:7898   */\n    tag_188:\n        /* \"#utility.yul\":7724:7728   */\n      0x00\n        /* \"#utility.yul\":7814:7832   */\n      0xffffffffffffffff\n        /* \"#utility.yul\":7806:7812   */\n      dup3\n        /* \"#utility.yul\":7803:7833   */\n      gt\n        /* \"#utility.yul\":7800:7856   */\n      iszero\n      tag_293\n      jumpi\n        /* \"#utility.yul\":7836:7854   */\n      tag_294\n      tag_295\n      jump\t// in\n    tag_294:\n        /* \"#utility.yul\":7800:7856   */\n    tag_293:\n        /* \"#utility.yul\":7886:7890   */\n      0x20\n        /* \"#utility.yul\":7878:7884   */\n      dup3\n        /* \"#utility.yul\":7874:7891   */\n      mul\n        /* \"#utility.yul\":7866:7891   */\n      swap1\n      pop\n        /* \"#utility.yul\":7639:7898   */\n      swap2\n      swap1\n      pop\n      jump\t// out\n        /* \"#utility.yul\":7904:8212   */\n    tag_205:\n        /* \"#utility.yul\":7966:7970   */\n      0x00\n        /* \"#utility.yul\":8056:8074   */\n      0xffffffffffffffff\n        /* \"#utility.yul\":8048:8054   */\n      dup3\n        /* \"#utility.yul\":8045:8075   */\n      gt\n        /* \"#utility.yul\":8042:8098   */\n      iszero\n      tag_297\n      jumpi\n        /* \"#utility.yul\":8078:8096   */\n      tag_298\n      tag_295\n      jump\t// in\n    tag_298:\n        /* \"#utility.yul\":8042:8098   */\n    tag_297:\n        /* \"#utility.yul\":8116:8145   */\n      tag_299\n        /* \"#utility.yul\":8138:8144   */\n      dup3\n        /* \"#utility.yul\":8116:8145   */\n      tag_256\n      jump\t// in\n    tag_299:\n        /* \"#utility.yul\":8108:8145   */\n      swap1\n      pop\n        /* \"#utility.yul\":8200:8204   */\n      0x20\n        /* \"#utility.yul\":8194:8198   */\n      dup2\n        /* \"#utility.yul\":8190:8205   */\n      add\n        /* \"#utility.yul\":8182:8205   */\n      swap1\n      pop\n        /* \"#utility.yul\":7904:8212   */\n      swap2\n      swap1\n      pop\n      jump\t// out\n        /* \"#utility.yul\":8218:8359   */\n    tag_265:\n        /* \"#utility.yul\":8267:8271   */\n      0x00\n        /* \"#utility.yul\":8290:8293   */\n      dup2\n        /* \"#utility.yul\":8282:8293   */\n      swap1\n      pop\n        /* \"#utility.yul\":8313:8316   */\n      dup2\n        /* \"#utility.yul\":8310:8311   */\n      0x00\n        /* \"#utility.yul\":8303:8317   */\n      mstore\n        /* \"#utility.yul\":8347:8351   */\n      0x20\n        /* \"#utility.yul\":8344:8345   */\n      0x00\n        /* \"#utility.yul\":8334:8352   */\n      keccak256\n        /* \"#utility.yul\":8326:8352   */\n      swap1\n      pop\n        /* \"#utility.yul\":8218:8359   */\n      swap2\n      swap1\n      pop\n      jump\t// out\n        /* \"#utility.yul\":8365:8464   */\n    tag_250:\n        /* \"#utility.yul\":8417:8423   */\n      0x00\n        /* \"#utility.yul\":8451:8456   */\n      dup2\n        /* \"#utility.yul\":8445:8457   */\n      mload\n        /* \"#utility.yul\":8435:8457   */\n      swap1\n      pop\n        /* \"#utility.yul\":8365:8464   */\n      swap2\n      swap1\n      pop\n      jump\t// out\n        /* \"#utility.yul\":8470:8639   */\n    tag_252:\n        /* \"#utility.yul\":8554:8565   */\n      0x00\n        /* \"#utility.yul\":8588:8594   */\n      dup3\n        /* \"#utility.yul\":8583:8586   */\n      dup3\n        /* \"#utility.yul\":8576:8595   */\n      mstore\n        /* \"#utility.yul\":8628:8632   */\n      0x20\n        /* \"#utility.yul\":8623:8626   */\n      dup3\n        /* \"#utility.yul\":8619:8633   */\n      add\n        /* \"#utility.yul\":8604:8633   */\n      swap1\n      pop\n        /* \"#utility.yul\":8470:8639   */\n      swap3\n      swap2\n      pop\n      pop\n      jump\t// out\n        /* \"#utility.yul\":8645:8782   */\n    tag_303:\n        /* \"#utility.yul\":8695:8702   */\n      0x00\n        /* \"#utility.yul\":8724:8729   */\n      dup2\n        /* \"#utility.yul\":8713:8729   */\n      swap1\n      pop\n        /* \"#utility.yul\":8730:8776   */\n      tag_305\n        /* \"#utility.yul\":8770:8775   */\n      dup3\n        /* \"#utility.yul\":8730:8776   */\n      tag_306\n      jump\t// in\n    tag_305:\n        /* \"#utility.yul\":8645:8782   */\n      swap2\n      swap1\n      pop\n      jump\t// out\n        /* \"#utility.yul\":8788:8865   */\n    tag_272:\n        /* \"#utility.yul\":8825:8832   */\n      0x00\n        /* \"#utility.yul\":8854:8859   */\n      dup2\n        /* \"#utility.yul\":8843:8859   */\n      swap1\n      pop\n        /* \"#utility.yul\":8788:8865   */\n      swap2\n      swap1\n      pop\n      jump\t// out\n        /* \"#utility.yul\":8871:9008   */\n    tag_246:\n        /* \"#utility.yul\":8932:8941   */\n      0x00\n        /* \"#utility.yul\":8965:9002   */\n      tag_309\n        /* \"#utility.yul\":8996:9001   */\n      dup3\n        /* \"#utility.yul\":8965:9002   */\n      tag_303\n      jump\t// in\n    tag_309:\n        /* \"#utility.yul\":8952:9002   */\n      swap1\n      pop\n        /* \"#utility.yul\":8871:9008   */\n      swap2\n      swap1\n      pop\n      jump\t// out\n        /* \"#utility.yul\":9014:9168   */\n    tag_210:\n        /* \"#utility.yul\":9098:9104   */\n      dup3\n        /* \"#utility.yul\":9093:9096   */\n      dup2\n        /* \"#utility.yul\":9088:9091   */\n      dup4\n        /* \"#utility.yul\":9075:9105   */\n      calldatacopy\n        /* \"#utility.yul\":9160:9161   */\n      0x00\n        /* \"#utility.yul\":9151:9157   */\n      dup4\n        /* \"#utility.yul\":9146:9149   */\n      dup4\n        /* \"#utility.yul\":9142:9158   */\n      add\n        /* \"#utility.yul\":9135:9162   */\n      mstore\n        /* \"#utility.yul\":9014:9168   */\n      pop\n      pop\n      pop\n      jump\t// out\n        /* \"#utility.yul\":9174:9481   */\n    tag_254:\n        /* \"#utility.yul\":9242:9243   */\n      0x00\n        /* \"#utility.yul\":9252:9365   */\n    tag_312:\n        /* \"#utility.yul\":9266:9272   */\n      dup4\n        /* \"#utility.yul\":9263:9264   */\n      dup2\n        /* \"#utility.yul\":9260:9273   */\n      lt\n        /* \"#utility.yul\":9252:9365   */\n      iszero\n      tag_314\n      jumpi\n        /* \"#utility.yul\":9351:9352   */\n      dup1\n        /* \"#utility.yul\":9346:9349   */\n      dup3\n        /* \"#utility.yul\":9342:9353   */\n      add\n        /* \"#utility.yul\":9336:9354   */\n      mload\n        /* \"#utility.yul\":9332:9333   */\n      dup2\n        /* \"#utility.yul\":9327:9330   */\n      dup5\n        /* \"#utility.yul\":9323:9334   */\n      add\n        /* \"#utility.yul\":9316:9355   */\n      mstore\n        /* \"#utility.yul\":9288:9290   */\n      0x20\n        /* \"#utility.yul\":9285:9286   */\n      dup2\n        /* \"#utility.yul\":9281:9291   */\n      add\n        /* \"#utility.yul\":9276:9291   */\n      swap1\n      pop\n        /* \"#utility.yul\":9252:9365   */\n      jump(tag_312)\n    tag_314:\n        /* \"#utility.yul\":9383:9389   */\n      dup4\n        /* \"#utility.yul\":9380:9381   */\n      dup2\n        /* \"#utility.yul\":9377:9390   */\n      gt\n        /* \"#utility.yul\":9374:9475   */\n      iszero\n      tag_315\n      jumpi\n        /* \"#utility.yul\":9463:9464   */\n      0x00\n        /* \"#utility.yul\":9454:9460   */\n      dup5\n        /* \"#utility.yul\":9449:9452   */\n      dup5\n        /* \"#utility.yul\":9445:9461   */\n      add\n        /* \"#utility.yul\":9438:9465   */\n      mstore\n        /* \"#utility.yul\":9374:9475   */\n    tag_315:\n        /* \"#utility.yul\":9223:9481   */\n      pop\n        /* \"#utility.yul\":9174:9481   */\n      pop\n      pop\n      pop\n      jump\t// out\n        /* \"#utility.yul\":9487:9807   */\n    tag_67:\n        /* \"#utility.yul\":9531:9537   */\n      0x00\n        /* \"#utility.yul\":9568:9569   */\n      0x02\n        /* \"#utility.yul\":9562:9566   */\n      dup3\n        /* \"#utility.yul\":9558:9570   */\n      div\n        /* \"#utility.yul\":9548:9570   */\n      swap1\n      pop\n        /* \"#utility.yul\":9615:9616   */\n      0x01\n        /* \"#utility.yul\":9609:9613   */\n      dup3\n        /* \"#utility.yul\":9605:9617   */\n      and\n        /* \"#utility.yul\":9636:9654   */\n      dup1\n        /* \"#utility.yul\":9626:9707   */\n      tag_317\n      jumpi\n        /* \"#utility.yul\":9692:9696   */\n      0x7f\n        /* \"#utility.yul\":9684:9690   */\n      dup3\n        /* \"#utility.yul\":9680:9697   */\n      and\n        /* \"#utility.yul\":9670:9697   */\n      swap2\n      pop\n        /* \"#utility.yul\":9626:9707   */\n    tag_317:\n        /* \"#utility.yul\":9754:9756   */\n      0x20\n        /* \"#utility.yul\":9746:9752   */\n      dup3\n        /* \"#utility.yul\":9743:9757   */\n      lt\n        /* \"#utility.yul\":9723:9741   */\n      dup2\n        /* \"#utility.yul\":9720:9758   */\n      eq\n        /* \"#utility.yul\":9717:9801   */\n      iszero\n      tag_318\n      jumpi\n        /* \"#utility.yul\":9773:9791   */\n      tag_319\n      tag_320\n      jump\t// in\n    tag_319:\n        /* \"#utility.yul\":9717:9801   */\n    tag_318:\n        /* \"#utility.yul\":9538:9807   */\n      pop\n        /* \"#utility.yul\":9487:9807   */\n      swap2\n      swap1\n      pop\n      jump\t// out\n        /* \"#utility.yul\":9813:10094   */\n    tag_290:\n        /* \"#utility.yul\":9896:9923   */\n      tag_322\n        /* \"#utility.yul\":9918:9922   */\n      dup3\n        /* \"#utility.yul\":9896:9923   */\n      tag_256\n      jump\t// in\n    tag_322:\n        /* \"#utility.yul\":9888:9894   */\n      dup2\n        /* \"#utility.yul\":9884:9924   */\n      add\n        /* \"#utility.yul\":10026:10032   */\n      dup2\n        /* \"#utility.yul\":10014:10024   */\n      dup2\n        /* \"#utility.yul\":10011:10033   */\n      lt\n        /* \"#utility.yul\":9990:10008   */\n      0xffffffffffffffff\n        /* \"#utility.yul\":9978:9988   */\n      dup3\n        /* \"#utility.yul\":9975:10009   */\n      gt\n        /* \"#utility.yul\":9972:10034   */\n      or\n        /* \"#utility.yul\":9969:10057   */\n      iszero\n      tag_323\n      jumpi\n        /* \"#utility.yul\":10037:10055   */\n      tag_324\n      tag_295\n      jump\t// in\n    tag_324:\n        /* \"#utility.yul\":9969:10057   */\n    tag_323:\n        /* \"#utility.yul\":10077:10087   */\n      dup1\n        /* \"#utility.yul\":10073:10075   */\n      0x40\n        /* \"#utility.yul\":10066:10088   */\n      mstore\n        /* \"#utility.yul\":9856:10094   */\n      pop\n        /* \"#utility.yul\":9813:10094   */\n      pop\n      pop\n      jump\t// out\n        /* \"#utility.yul\":10100:10333   */\n    tag_101:\n        /* \"#utility.yul\":10139:10142   */\n      0x00\n        /* \"#utility.yul\":10162:10186   */\n      tag_326\n        /* \"#utility.yul\":10180:10185   */\n      dup3\n        /* \"#utility.yul\":10162:10186   */\n      tag_272\n      jump\t// in\n    tag_326:\n        /* \"#utility.yul\":10153:10186   */\n      swap2\n      pop\n        /* \"#utility.yul\":10208:10274   */\n      0xffffffffffffffffffffffffffffffffffffffffffffffffffffffffffffffff\n        /* \"#utility.yul\":10201:10206   */\n      dup3\n        /* \"#utility.yul\":10198:10275   */\n      eq\n        /* \"#utility.yul\":10195:10298   */\n      iszero\n      tag_327\n      jumpi\n        /* \"#utility.yul\":10278:10296   */\n      tag_328\n      tag_329\n      jump\t// in\n    tag_328:\n        /* \"#utility.yul\":10195:10298   */\n    tag_327:\n        /* \"#utility.yul\":10325:10326   */\n      0x01\n        /* \"#utility.yul\":10318:10323   */\n      dup3\n        /* \"#utility.yul\":10314:10327   */\n      add\n        /* \"#utility.yul\":10307:10327   */\n      swap1\n      pop\n        /* \"#utility.yul\":10100:10333   */\n      swap2\n      swap1\n      pop\n      jump\t// out\n        /* \"#utility.yul\":10339:10519   */\n    tag_329:\n        /* \"#utility.yul\":10387:10464   */\n      0x4e487b7100000000000000000000000000000000000000000000000000000000\n        /* \"#utility.yul\":10384:10385   */\n      0x00\n        /* \"#utility.yul\":10377:10465   */\n      mstore\n        /* \"#utility.yul\":10484:10488   */\n      0x11\n        /* \"#utility.yul\":10481:10482   */\n      0x04\n        /* \"#utility.yul\":10474:10489   */\n      mstore\n        /* \"#utility.yul\":10508:10512   */\n      0x24\n        /* \"#utility.yul\":10505:10506   */\n      0x00\n        /* \"#utility.yul\":10498:10513   */\n      revert\n        /* \"#utility.yul\":10525:10705   */\n    tag_37:\n        /* \"#utility.yul\":10573:10650   */\n      0x4e487b7100000000000000000000000000000000000000000000000000000000\n        /* \"#utility.yul\":10570:10571   */\n      0x00\n        /* \"#utility.yul\":10563:10651   */\n      mstore\n        /* \"#utility.yul\":10670:10674   */\n      0x21\n        /* \"#utility.yul\":10667:10668   */\n      0x04\n        /* \"#utility.yul\":10660:10675   */\n      mstore\n        /* \"#utility.yul\":10694:10698   */\n      0x24\n        /* \"#utility.yul\":10691:10692   */\n      0x00\n        /* \"#utility.yul\":10684:10699   */\n      revert\n        /* \"#utility.yul\":10711:10891   */\n    tag_320:\n        /* \"#utility.yul\":10759:10836   */\n      0x4e487b7100000000000000000000000000000000000000000000000000000000\n        /* \"#utility.yul\":10756:10757   */\n      0x00\n        /* \"#utility.yul\":10749:10837   */\n      mstore\n        /* \"#utility.yul\":10856:10860   */\n      0x22\n        /* \"#utility.yul\":10853:10854   */\n      0x04\n        /* \"#utility.yul\":10846:10861   */\n      mstore\n        /* \"#utility.yul\":10880:10884   */\n      0x24\n        /* \"#utility.yul\":10877:10878   */\n      0x00\n        /* \"#utility.yul\":10870:10885   */\n      revert\n        /* \"#utility.yul\":10897:11077   */\n    tag_106:\n        /* \"#utility.yul\":10945:11022   */\n      0x4e487b7100000000000000000000000000000000000000000000000000000000\n        /* \"#utility.yul\":10942:10943   */\n      0x00\n        /* \"#utility.yul\":10935:11023   */\n      mstore\n        /* \"#utility.yul\":11042:11046   */\n      0x32\n        /* \"#utility.yul\":11039:11040   */\n      0x04\n        /* \"#utility.yul\":11032:11047   */\n      mstore\n        /* \"#utility.yul\":11066:11070   */\n      0x24\n        /* \"#utility.yul\":11063:11064   */\n      0x00\n        /* \"#utility.yul\":11056:11071   */\n      revert\n        /* \"#utility.yul\":11083:11263   */\n    tag_295:\n        /* \"#utility.yul\":11131:11208   */\n      0x4e487b7100000000000000000000000000000000000000000000000000000000\n        /* \"#utility.yul\":11128:11129   */\n      0x00\n        /* \"#utility.yul\":11121:11209   */\n      mstore\n        /* \"#utility.yul\":11228:11232   */\n      0x41\n        /* \"#utility.yul\":11225:11226   */\n      0x04\n        /* \"#utility.yul\":11218:11233   */\n      mstore\n        /* \"#utility.yul\":11252:11256   */\n      0x24\n        /* \"#utility.yul\":11249:11250   */\n      0x00\n        /* \"#utility.yul\":11242:11257   */\n      revert\n        /* \"#utility.yul\":11269:11386   */\n    tag_198:\n        /* \"#utility.yul\":11378:11379   */\n      0x00\n        /* \"#utility.yul\":11375:11376   */\n      dup1\n        /* \"#utility.yul\":11368:11380   */\n      revert\n        /* \"#utility.yul\":11392:11509   */\n    tag_192:\n        /* \"#utility.yul\":11501:11502   */\n      0x00\n        /* \"#utility.yul\":11498:11499   */\n      dup1\n        /* \"#utility.yul\":11491:11503   */\n      revert\n        /* \"#utility.yul\":11515:11632   */\n    tag_208:\n        /* \"#utility.yul\":11624:11625   */\n      0x00\n        /* \"#utility.yul\":11621:11622   */\n      dup1\n        /* \"#utility.yul\":11614:11626   */\n      revert\n        /* \"#utility.yul\":11638:11755   */\n    tag_230:\n        /* \"#utility.yul\":11747:11748   */\n      0x00\n        /* \"#utility.yul\":11744:11745   */\n      dup1\n        /* \"#utility.yul\":11737:11749   */\n      revert\n        /* \"#utility.yul\":11761:11878   */\n    tag_227:\n        /* \"#utility.yul\":11870:11871   */\n      0x00\n        /* \"#utility.yul\":11867:11868   */\n      dup1\n        /* \"#utility.yul\":11860:11872   */\n      revert\n        /* \"#utility.yul\":11884:11986   */\n    tag_256:\n        /* \"#utility.yul\":11925:11931   */\n      0x00\n        /* \"#utility.yul\":11976:11978   */\n      0x1f\n        /* \"#utility.yul\":11972:11979   */\n      not\n        /* \"#utility.yul\":11967:11969   */\n      0x1f\n        /* \"#utility.yul\":11960:11965   */\n      dup4\n        /* \"#utility.yul\":11956:11970   */\n      add\n        /* \"#utility.yul\":11952:11980   */\n      and\n        /* \"#utility.yul\":11942:11980   */\n      swap1\n      pop\n        /* \"#utility.yul\":11884:11986   */\n      swap2\n      swap1\n      pop\n      jump\t// out\n        /* \"#utility.yul\":11992:12110   */\n    tag_306:\n        /* \"#utility.yul\":12078:12079   */\n      0x04\n        /* \"#utility.yul\":12071:12076   */\n      dup2\n        /* \"#utility.yul\":12068:12080   */\n      lt\n        /* \"#utility.yul\":12058:12104   */\n      tag_342\n      jumpi\n        /* \"#utility.yul\":12084:12102   */\n      tag_343\n      tag_37\n      jump\t// in\n    tag_343:\n        /* \"#utility.yul\":12058:12104   */\n    tag_342:\n        /* \"#utility.yul\":11992:12110   */\n      pop\n      jump\t// out\n        /* \"#utility.yul\":12116:12238   */\n    tag_223:\n        /* \"#utility.yul\":12189:12213   */\n      tag_345\n        /* \"#utility.yul\":12207:12212   */\n      dup2\n        /* \"#utility.yul\":12189:12213   */\n      tag_272\n      jump\t// in\n    tag_345:\n        /* \"#utility.yul\":12182:12187   */\n      dup2\n        /* \"#utility.yul\":12179:12214   */\n      eq\n        /* \"#utility.yul\":12169:12232   */\n      tag_346\n      jumpi\n        /* \"#utility.yul\":12228:12229   */\n      0x00\n        /* \"#utility.yul\":12225:12226   */\n      dup1\n        /* \"#utility.yul\":12218:12230   */\n      revert\n        /* \"#utility.yul\":12169:12232   */\n    tag_346:\n        /* \"#utility.yul\":12116:12238   */\n      pop\n      jump\t// out\n\n    auxdata: 0xa2646970667358221220626882c4f4818aa831aad48b7c0e19586e4430f1b0ca380ed8c00bd6ff79fcf564736f6c63430008070033\n}\n",
				"bytecode": {
					"linkReferences": {},
					"object": "608060405234801561001057600080fd5b50336000806101000a81548173ffffffffffffffffffffffffffffffffffffffff021916908373ffffffffffffffffffffffffffffffffffffffff160217905550611512806100606000396000f3fe608060405234801561001057600080fd5b50600436106100625760003560e01c806302d9530d1461006757806308dafd071461008357806385ca76d71461009f578063ed175850146100bb578063f23de3b2146100f1578063f55172d81461010d575b600080fd5b610081600480360381019061007c9190610f8e565b610129565b005b61009d60048036038101906100989190610f8e565b610219565b005b6100b960048036038101906100b49190610f8e565b610309565b005b6100d560048036038101906100d09190610f8e565b6103f8565b6040516100e897969594939291906110ee565b60405180910390f35b61010b60048036038101906101069190610f45565b610777565b005b61012760048036038101906101229190610fbb565b610a11565b005b60008054906101000a900473ffffffffffffffffffffffffffffffffffffffff1673ffffffffffffffffffffffffffffffffffffffff163373ffffffffffffffffffffffffffffffffffffffff161461018157600080fd5b80600380811115610195576101946113cb565b5b6002600083815260200190815260200160002060000160009054906101000a900460ff1660038111156101cb576101ca6113cb565b5b14156101d657600080fd5b60016002600084815260200190815260200160002060000160006101000a81548160ff021916908360038111156102105761020f6113cb565b5b02179055505050565b60008054906101000a900473ffffffffffffffffffffffffffffffffffffffff1673ffffffffffffffffffffffffffffffffffffffff163373ffffffffffffffffffffffffffffffffffffffff161461027157600080fd5b80600380811115610285576102846113cb565b5b6002600083815260200190815260200160002060000160009054906101000a900460ff1660038111156102bb576102ba6113cb565b5b14156102c657600080fd5b60036002600084815260200190815260200160002060000160006101000a81548160ff02191690836003811115610300576102ff6113cb565b5b02179055505050565b60008054906101000a900473ffffffffffffffffffffffffffffffffffffffff1673ffffffffffffffffffffffffffffffffffffffff163373ffffffffffffffffffffffffffffffffffffffff161461036157600080fd5b80600380811115610375576103746113cb565b5b6002600083815260200190815260200160002060000160009054906101000a900460ff1660038111156103ab576103aa6113cb565b5b14156103b657600080fd5b600280600084815260200190815260200160002060000160006101000a81548160ff021916908360038111156103ef576103ee6113cb565b5b02179055505050565b60026020528060005260406000206000915090508060000160009054906101000a900460ff169080600101805461042e906112f0565b80601f016020809104026020016040519081016040528092919081815260200182805461045a906112f0565b80156104a75780601f1061047c576101008083540402835291602001916104a7565b820191906000526020600020905b81548152906001019060200180831161048a57829003601f168201915b5050505050908060020180546104bc906112f0565b80601f01602080910402602001604051908101604052809291908181526020018280546104e8906112f0565b80156105355780601f1061050a57610100808354040283529160200191610535565b820191906000526020600020905b81548152906001019060200180831161051857829003601f168201915b50505050509080600301805461054a906112f0565b80601f0160208091040260200160405190810160405280929190818152602001828054610576906112f0565b80156105c35780601f10610598576101008083540402835291602001916105c3565b820191906000526020600020905b8154815290600101906020018083116105a657829003601f168201915b5050505050908060040180546105d8906112f0565b80601f0160208091040260200160405190810160405280929190818152602001828054610604906112f0565b80156106515780601f1061062657610100808354040283529160200191610651565b820191906000526020600020905b81548152906001019060200180831161063457829003601f168201915b505050505090806005018054610666906112f0565b80601f0160208091040260200160405190810160405280929190818152602001828054610692906112f0565b80156106df5780601f106106b4576101008083540402835291602001916106df565b820191906000526020600020905b8154815290600101906020018083116106c257829003601f168201915b5050505050908060060180546106f4906112f0565b80601f0160208091040260200160405190810160405280929190818152602001828054610720906112f0565b801561076d5780601f106107425761010080835404028352916020019161076d565b820191906000526020600020905b81548152906001019060200180831161075057829003601f168201915b5050505050905087565b60008054906101000a900473ffffffffffffffffffffffffffffffffffffffff1673ffffffffffffffffffffffffffffffffffffffff163373ffffffffffffffffffffffffffffffffffffffff16146107cf57600080fd5b60006001549050600160008154809291906107e990611353565b919050555060016002600083815260200190815260200160002060000160006101000a81548160ff02191690836003811115610828576108276113cb565b5b02179055508160006006811061084157610840611429565b5b602002015160026000838152602001908152602001600020600101908051906020019061086f929190610d6d565b508160016006811061088457610883611429565b5b60200201516002600083815260200190815260200160002060020190805190602001906108b2929190610d6d565b50816002600681106108c7576108c6611429565b5b60200201516002600083815260200190815260200160002060030190805190602001906108f5929190610d6d565b508160036006811061090a57610909611429565b5b6020020151600260008381526020019081526020016000206004019080519060200190610938929190610d6d565b508160046006811061094d5761094c611429565b5b602002015160026000838152602001908152602001600020600501908051906020019061097b929190610d6d565b50816005600681106109905761098f611429565b5b60200201516002600083815260200190815260200160002060060190805190602001906109be929190610d6d565b507f5e3dd01f6975d9a23fd7e096490c1357fc9b4936457e07c100751c9bfb87eec08160026000848152602001908152602001600020600101604051610a059291906111a2565b60405180910390a15050565b60008054906101000a900473ffffffffffffffffffffffffffffffffffffffff1673ffffffffffffffffffffffffffffffffffffffff163373ffffffffffffffffffffffffffffffffffffffff1614610a6957600080fd5b8160016003811115610a7e57610a7d6113cb565b5b6002600083815260200190815260200160002060000160009054906101000a900460ff166003811115610ab457610ab36113cb565b5b14610abe57600080fd5b600082600060068110610ad457610ad3611429565b5b602002015190506000815114610b285782600060068110610af857610af7611429565b5b6020020151600260008681526020019081526020016000206001019080519060200190610b26929190610d6d565b505b82600160068110610b3c57610b3b611429565b5b602002015190506000815114610b905782600160068110610b6057610b5f611429565b5b6020020151600260008681526020019081526020016000206002019080519060200190610b8e929190610d6d565b505b82600260068110610ba457610ba3611429565b5b602002015190506000815114610bf85782600260068110610bc857610bc7611429565b5b6020020151600260008681526020019081526020016000206003019080519060200190610bf6929190610d6d565b505b82600360068110610c0c57610c0b611429565b5b602002015190506000815114610c605782600360068110610c3057610c2f611429565b5b6020020151600260008681526020019081526020016000206004019080519060200190610c5e929190610d6d565b505b82600460068110610c7457610c73611429565b5b602002015190506000815114610cc85782600460068110610c9857610c97611429565b5b6020020151600260008681526020019081526020016000206005019080519060200190610cc6929190610d6d565b505b82600560068110610cdc57610cdb611429565b5b602002015190506000815114610d305782600560068110610d0057610cff611429565b5b6020020151600260008681526020019081526020016000206006019080519060200190610d2e929190610d6d565b505b7f164c2e58722dc4a6f8cf8c576a57c505a23385cf838d63f1f1b16979d549e8c884604051610d5f9190611187565b60405180910390a150505050565b828054610d79906112f0565b90600052602060002090601f016020900481019282610d9b5760008555610de2565b82601f10610db457805160ff1916838001178555610de2565b82800160010185558215610de2579182015b82811115610de1578251825591602001919060010190610dc6565b5b509050610def9190610df3565b5090565b5b80821115610e0c576000816000905550600101610df4565b5090565b6000610e23610e1e846111f7565b6111d2565b90508082856020860282011115610e3d57610e3c61148c565b5b60005b85811015610e8b57813567ffffffffffffffff811115610e6357610e62611487565b5b808601610e708982610f02565b85526020850194506020840193505050600181019050610e40565b5050509392505050565b6000610ea8610ea38461121d565b6111d2565b905082815260208101848484011115610ec457610ec3611491565b5b610ecf8482856112ae565b509392505050565b600082601f830112610eec57610eeb611487565b5b6006610ef9848285610e10565b91505092915050565b600082601f830112610f1757610f16611487565b5b8135610f27848260208601610e95565b91505092915050565b600081359050610f3f816114c5565b92915050565b600060208284031215610f5b57610f5a61149b565b5b600082013567ffffffffffffffff811115610f7957610f78611496565b5b610f8584828501610ed7565b91505092915050565b600060208284031215610fa457610fa361149b565b5b6000610fb284828501610f30565b91505092915050565b60008060408385031215610fd257610fd161149b565b5b6000610fe085828601610f30565b925050602083013567ffffffffffffffff81111561100157611000611496565b5b61100d85828601610ed7565b9150509250929050565b6110208161129c565b82525050565b600061103182611263565b61103b818561126e565b935061104b8185602086016112bd565b611054816114a0565b840191505092915050565b6000815461106c816112f0565b611076818661126e565b9450600182166000811461109157600181146110a3576110d6565b60ff19831686526020860193506110d6565b6110ac8561124e565b60005b838110156110ce578154818901526001820191506020810190506110af565b808801955050505b50505092915050565b6110e881611292565b82525050565b600060e082019050611103600083018a611017565b81810360208301526111158189611026565b905081810360408301526111298188611026565b9050818103606083015261113d8187611026565b905081810360808301526111518186611026565b905081810360a08301526111658185611026565b905081810360c08301526111798184611026565b905098975050505050505050565b600060208201905061119c60008301846110df565b92915050565b60006040820190506111b760008301856110df565b81810360208301526111c9818461105f565b90509392505050565b60006111dc6111ed565b90506111e88282611322565b919050565b6000604051905090565b600067ffffffffffffffff82111561121257611211611458565b5b602082029050919050565b600067ffffffffffffffff82111561123857611237611458565b5b611241826114a0565b9050602081019050919050565b60008190508160005260206000209050919050565b600081519050919050565b600082825260208201905092915050565b600081905061128d826114b1565b919050565b6000819050919050565b60006112a78261127f565b9050919050565b82818337600083830152505050565b60005b838110156112db5780820151818401526020810190506112c0565b838111156112ea576000848401525b50505050565b6000600282049050600182168061130857607f821691505b6020821081141561131c5761131b6113fa565b5b50919050565b61132b826114a0565b810181811067ffffffffffffffff8211171561134a57611349611458565b5b80604052505050565b600061135e82611292565b91507fffffffffffffffffffffffffffffffffffffffffffffffffffffffffffffffff8214156113915761139061139c565b5b600182019050919050565b7f4e487b7100000000000000000000000000000000000000000000000000000000600052601160045260246000fd5b7f4e487b7100000000000000000000000000000000000000000000000000000000600052602160045260246000fd5b7f4e487b7100000000000000000000000000000000000000000000000000000000600052602260045260246000fd5b7f4e487b7100000000000000000000000000000000000000000000000000000000600052603260045260246000fd5b7f4e487b7100000000000000000000000000000000000000000000000000000000600052604160045260246000fd5b600080fd5b600080fd5b600080fd5b600080fd5b600080fd5b6000601f19601f8301169050919050565b600481106114c2576114c16113cb565b5b50565b6114ce81611292565b81146114d957600080fd5b5056fea2646970667358221220626882c4f4818aa831aad48b7c0e19586e4430f1b0ca380ed8c00bd6ff79fcf564736f6c63430008070033",
					"opcodes": "PUSH1 0x80 PUSH1 0x40 MSTORE CALLVALUE DUP1 ISZERO PUSH2 0x10 JUMPI PUSH1 0x0 DUP1 REVERT JUMPDEST POP CALLER PUSH1 0x0 DUP1 PUSH2 0x100 EXP DUP2 SLOAD DUP2 PUSH20 0xFFFFFFFFFFFFFFFFFFFFFFFFFFFFFFFFFFFFFFFF MUL NOT AND SWAP1 DUP4 PUSH20 0xFFFFFFFFFFFFFFFFFFFFFFFFFFFFFFFFFFFFFFFF AND MUL OR SWAP1 SSTORE POP PUSH2 0x1512 DUP1 PUSH2 0x60 PUSH1 0x0 CODECOPY PUSH1 0x0 RETURN INVALID PUSH1 0x80 PUSH1 0x40 MSTORE CALLVALUE DUP1 ISZERO PUSH2 0x10 JUMPI PUSH1 0x0 DUP1 REVERT JUMPDEST POP PUSH1 0x4 CALLDATASIZE LT PUSH2 0x62 JUMPI PUSH1 0x0 CALLDATALOAD PUSH1 0xE0 SHR DUP1 PUSH4 0x2D9530D EQ PUSH2 0x67 JUMPI DUP1 PUSH4 0x8DAFD07 EQ PUSH2 0x83 JUMPI DUP1 PUSH4 0x85CA76D7 EQ PUSH2 0x9F JUMPI DUP1 PUSH4 0xED175850 EQ PUSH2 0xBB JUMPI DUP1 PUSH4 0xF23DE3B2 EQ PUSH2 0xF1 JUMPI DUP1 PUSH4 0xF55172D8 EQ PUSH2 0x10D JUMPI JUMPDEST PUSH1 0x0 DUP1 REVERT JUMPDEST PUSH2 0x81 PUSH1 0x4 DUP1 CALLDATASIZE SUB DUP2 ADD SWAP1 PUSH2 0x7C SWAP2 SWAP1 PUSH2 0xF8E JUMP JUMPDEST PUSH2 0x129 JUMP JUMPDEST STOP JUMPDEST PUSH2 0x9D PUSH1 0x4 DUP1 CALLDATASIZE SUB DUP2 ADD SWAP1 PUSH2 0x98 SWAP2 SWAP1 PUSH2 0xF8E JUMP JUMPDEST PUSH2 0x219 JUMP JUMPDEST STOP JUMPDEST PUSH2 0xB9 PUSH1 0x4 DUP1 CALLDATASIZE SUB DUP2 ADD SWAP1 PUSH2 0xB4 SWAP2 SWAP1 PUSH2 0xF8E JUMP JUMPDEST PUSH2 0x309 JUMP JUMPDEST STOP JUMPDEST PUSH2 0xD5 PUSH1 0x4 DUP1 CALLDATASIZE SUB DUP2 ADD SWAP1 PUSH2 0xD0 SWAP2 SWAP1 PUSH2 0xF8E JUMP JUMPDEST PUSH2 0x3F8 JUMP JUMPDEST PUSH1 0x40 MLOAD PUSH2 0xE8 SWAP8 SWAP7 SWAP6 SWAP5 SWAP4 SWAP3 SWAP2 SWAP1 PUSH2 0x10EE JUMP JUMPDEST PUSH1 0x40 MLOAD DUP1 SWAP2 SUB SWAP1 RETURN JUMPDEST PUSH2 0x10B PUSH1 0x4 DUP1 CALLDATASIZE SUB DUP2 ADD SWAP1 PUSH2 0x106 SWAP2 SWAP1 PUSH2 0xF45 JUMP JUMPDEST PUSH2 0x777 JUMP JUMPDEST STOP JUMPDEST PUSH2 0x127 PUSH1 0x4 DUP1 CALLDATASIZE SUB DUP2 ADD SWAP1 PUSH2 0x122 SWAP2 SWAP1 PUSH2 0xFBB JUMP JUMPDEST PUSH2 0xA11 JUMP JUMPDEST STOP JUMPDEST PUSH1 0x0 DUP1 SLOAD SWAP1 PUSH2 0x100 EXP SWAP1 DIV PUSH20 0xFFFFFFFFFFFFFFFFFFFFFFFFFFFFFFFFFFFFFFFF AND PUSH20 0xFFFFFFFFFFFFFFFFFFFFFFFFFFFFFFFFFFFFFFFF AND CALLER PUSH20 0xFFFFFFFFFFFFFFFFFFFFFFFFFFFFFFFFFFFFFFFF AND EQ PUSH2 0x181 JUMPI PUSH1 0x0 DUP1 REVERT JUMPDEST DUP1 PUSH1 0x3 DUP1 DUP2 GT ISZERO PUSH2 0x195 JUMPI PUSH2 0x194 PUSH2 0x13CB JUMP JUMPDEST JUMPDEST PUSH1 0x2 PUSH1 0x0 DUP4 DUP2 MSTORE PUSH1 0x20 ADD SWAP1 DUP2 MSTORE PUSH1 0x20 ADD PUSH1 0x0 KECCAK256 PUSH1 0x0 ADD PUSH1 0x0 SWAP1 SLOAD SWAP1 PUSH2 0x100 EXP SWAP1 DIV PUSH1 0xFF AND PUSH1 0x3 DUP2 GT ISZERO PUSH2 0x1CB JUMPI PUSH2 0x1CA PUSH2 0x13CB JUMP JUMPDEST JUMPDEST EQ ISZERO PUSH2 0x1D6 JUMPI PUSH1 0x0 DUP1 REVERT JUMPDEST PUSH1 0x1 PUSH1 0x2 PUSH1 0x0 DUP5 DUP2 MSTORE PUSH1 0x20 ADD SWAP1 DUP2 MSTORE PUSH1 0x20 ADD PUSH1 0x0 KECCAK256 PUSH1 0x0 ADD PUSH1 0x0 PUSH2 0x100 EXP DUP2 SLOAD DUP2 PUSH1 0xFF MUL NOT AND SWAP1 DUP4 PUSH1 0x3 DUP2 GT ISZERO PUSH2 0x210 JUMPI PUSH2 0x20F PUSH2 0x13CB JUMP JUMPDEST JUMPDEST MUL OR SWAP1 SSTORE POP POP POP JUMP JUMPDEST PUSH1 0x0 DUP1 SLOAD SWAP1 PUSH2 0x100 EXP SWAP1 DIV PUSH20 0xFFFFFFFFFFFFFFFFFFFFFFFFFFFFFFFFFFFFFFFF AND PUSH20 0xFFFFFFFFFFFFFFFFFFFFFFFFFFFFFFFFFFFFFFFF AND CALLER PUSH20 0xFFFFFFFFFFFFFFFFFFFFFFFFFFFFFFFFFFFFFFFF AND EQ PUSH2 0x271 JUMPI PUSH1 0x0 DUP1 REVERT JUMPDEST DUP1 PUSH1 0x3 DUP1 DUP2 GT ISZERO PUSH2 0x285 JUMPI PUSH2 0x284 PUSH2 0x13CB JUMP JUMPDEST JUMPDEST PUSH1 0x2 PUSH1 0x0 DUP4 DUP2 MSTORE PUSH1 0x20 ADD SWAP1 DUP2 MSTORE PUSH1 0x20 ADD PUSH1 0x0 KECCAK256 PUSH1 0x0 ADD PUSH1 0x0 SWAP1 SLOAD SWAP1 PUSH2 0x100 EXP SWAP1 DIV PUSH1 0xFF AND PUSH1 0x3 DUP2 GT ISZERO PUSH2 0x2BB JUMPI PUSH2 0x2BA PUSH2 0x13CB JUMP JUMPDEST JUMPDEST EQ ISZERO PUSH2 0x2C6 JUMPI PUSH1 0x0 DUP1 REVERT JUMPDEST PUSH1 0x3 PUSH1 0x2 PUSH1 0x0 DUP5 DUP2 MSTORE PUSH1 0x20 ADD SWAP1 DUP2 MSTORE PUSH1 0x20 ADD PUSH1 0x0 KECCAK256 PUSH1 0x0 ADD PUSH1 0x0 PUSH2 0x100 EXP DUP2 SLOAD DUP2 PUSH1 0xFF MUL NOT AND SWAP1 DUP4 PUSH1 0x3 DUP2 GT ISZERO PUSH2 0x300 JUMPI PUSH2 0x2FF PUSH2 0x13CB JUMP JUMPDEST JUMPDEST MUL OR SWAP1 SSTORE POP POP POP JUMP JUMPDEST PUSH1 0x0 DUP1 SLOAD SWAP1 PUSH2 0x100 EXP SWAP1 DIV PUSH20 0xFFFFFFFFFFFFFFFFFFFFFFFFFFFFFFFFFFFFFFFF AND PUSH20 0xFFFFFFFFFFFFFFFFFFFFFFFFFFFFFFFFFFFFFFFF AND CALLER PUSH20 0xFFFFFFFFFFFFFFFFFFFFFFFFFFFFFFFFFFFFFFFF AND EQ PUSH2 0x361 JUMPI PUSH1 0x0 DUP1 REVERT JUMPDEST DUP1 PUSH1 0x3 DUP1 DUP2 GT ISZERO PUSH2 0x375 JUMPI PUSH2 0x374 PUSH2 0x13CB JUMP JUMPDEST JUMPDEST PUSH1 0x2 PUSH1 0x0 DUP4 DUP2 MSTORE PUSH1 0x20 ADD SWAP1 DUP2 MSTORE PUSH1 0x20 ADD PUSH1 0x0 KECCAK256 PUSH1 0x0 ADD PUSH1 0x0 SWAP1 SLOAD SWAP1 PUSH2 0x100 EXP SWAP1 DIV PUSH1 0xFF AND PUSH1 0x3 DUP2 GT ISZERO PUSH2 0x3AB JUMPI PUSH2 0x3AA PUSH2 0x13CB JUMP JUMPDEST JUMPDEST EQ ISZERO PUSH2 0x3B6 JUMPI PUSH1 0x0 DUP1 REVERT JUMPDEST PUSH1 0x2 DUP1 PUSH1 0x0 DUP5 DUP2 MSTORE PUSH1 0x20 ADD SWAP1 DUP2 MSTORE PUSH1 0x20 ADD PUSH1 0x0 KECCAK256 PUSH1 0x0 ADD PUSH1 0x0 PUSH2 0x100 EXP DUP2 SLOAD DUP2 PUSH1 0xFF MUL NOT AND SWAP1 DUP4 PUSH1 0x3 DUP2 GT ISZERO PUSH2 0x3EF JUMPI PUSH2 0x3EE PUSH2 0x13CB JUMP JUMPDEST JUMPDEST MUL OR SWAP1 SSTORE POP POP POP JUMP JUMPDEST PUSH1 0x2 PUSH1 0x20 MSTORE DUP1 PUSH1 0x0 MSTORE PUSH1 0x40 PUSH1 0x0 KECCAK256 PUSH1 0x0 SWAP2 POP SWAP1 POP DUP1 PUSH1 0x0 ADD PUSH1 0x0 SWAP1 SLOAD SWAP1 PUSH2 0x100 EXP SWAP1 DIV PUSH1 0xFF AND SWAP1 DUP1 PUSH1 0x1 ADD DUP1 SLOAD PUSH2 0x42E SWAP1 PUSH2 0x12F0 JUMP JUMPDEST DUP1 PUSH1 0x1F ADD PUSH1 0x20 DUP1 SWAP2 DIV MUL PUSH1 0x20 ADD PUSH1 0x40 MLOAD SWAP1 DUP2 ADD PUSH1 0x40 MSTORE DUP1 SWAP3 SWAP2 SWAP1 DUP2 DUP2 MSTORE PUSH1 0x20 ADD DUP3 DUP1 SLOAD PUSH2 0x45A SWAP1 PUSH2 0x12F0 JUMP JUMPDEST DUP1 ISZERO PUSH2 0x4A7 JUMPI DUP1 PUSH1 0x1F LT PUSH2 0x47C JUMPI PUSH2 0x100 DUP1 DUP4 SLOAD DIV MUL DUP4 MSTORE SWAP2 PUSH1 0x20 ADD SWAP2 PUSH2 0x4A7 JUMP JUMPDEST DUP3 ADD SWAP2 SWAP1 PUSH1 0x0 MSTORE PUSH1 0x20 PUSH1 0x0 KECCAK256 SWAP1 JUMPDEST DUP2 SLOAD DUP2 MSTORE SWAP1 PUSH1 0x1 ADD SWAP1 PUSH1 0x20 ADD DUP1 DUP4 GT PUSH2 0x48A JUMPI DUP3 SWAP1 SUB PUSH1 0x1F AND DUP3 ADD SWAP2 JUMPDEST POP POP POP POP POP SWAP1 DUP1 PUSH1 0x2 ADD DUP1 SLOAD PUSH2 0x4BC SWAP1 PUSH2 0x12F0 JUMP JUMPDEST DUP1 PUSH1 0x1F ADD PUSH1 0x20 DUP1 SWAP2 DIV MUL PUSH1 0x20 ADD PUSH1 0x40 MLOAD SWAP1 DUP2 ADD PUSH1 0x40 MSTORE DUP1 SWAP3 SWAP2 SWAP1 DUP2 DUP2 MSTORE PUSH1 0x20 ADD DUP3 DUP1 SLOAD PUSH2 0x4E8 SWAP1 PUSH2 0x12F0 JUMP JUMPDEST DUP1 ISZERO PUSH2 0x535 JUMPI DUP1 PUSH1 0x1F LT PUSH2 0x50A JUMPI PUSH2 0x100 DUP1 DUP4 SLOAD DIV MUL DUP4 MSTORE SWAP2 PUSH1 0x20 ADD SWAP2 PUSH2 0x535 JUMP JUMPDEST DUP3 ADD SWAP2 SWAP1 PUSH1 0x0 MSTORE PUSH1 0x20 PUSH1 0x0 KECCAK256 SWAP1 JUMPDEST DUP2 SLOAD DUP2 MSTORE SWAP1 PUSH1 0x1 ADD SWAP1 PUSH1 0x20 ADD DUP1 DUP4 GT PUSH2 0x518 JUMPI DUP3 SWAP1 SUB PUSH1 0x1F AND DUP3 ADD SWAP2 JUMPDEST POP POP POP POP POP SWAP1 DUP1 PUSH1 0x3 ADD DUP1 SLOAD PUSH2 0x54A SWAP1 PUSH2 0x12F0 JUMP JUMPDEST DUP1 PUSH1 0x1F ADD PUSH1 0x20 DUP1 SWAP2 DIV MUL PUSH1 0x20 ADD PUSH1 0x40 MLOAD SWAP1 DUP2 ADD PUSH1 0x40 MSTORE DUP1 SWAP3 SWAP2 SWAP1 DUP2 DUP2 MSTORE PUSH1 0x20 ADD DUP3 DUP1 SLOAD PUSH2 0x576 SWAP1 PUSH2 0x12F0 JUMP JUMPDEST DUP1 ISZERO PUSH2 0x5C3 JUMPI DUP1 PUSH1 0x1F LT PUSH2 0x598 JUMPI PUSH2 0x100 DUP1 DUP4 SLOAD DIV MUL DUP4 MSTORE SWAP2 PUSH1 0x20 ADD SWAP2 PUSH2 0x5C3 JUMP JUMPDEST DUP3 ADD SWAP2 SWAP1 PUSH1 0x0 MSTORE PUSH1 0x20 PUSH1 0x0 KECCAK256 SWAP1 JUMPDEST DUP2 SLOAD DUP2 MSTORE SWAP1 PUSH1 0x1 ADD SWAP1 PUSH1 0x20 ADD DUP1 DUP4 GT PUSH2 0x5A6 JUMPI DUP3 SWAP1 SUB PUSH1 0x1F AND DUP3 ADD SWAP2 JUMPDEST POP POP POP POP POP SWAP1 DUP1 PUSH1 0x4 ADD DUP1 SLOAD PUSH2 0x5D8 SWAP1 PUSH2 0x12F0 JUMP JUMPDEST DUP1 PUSH1 0x1F ADD PUSH1 0x20 DUP1 SWAP2 DIV MUL PUSH1 0x20 ADD PUSH1 0x40 MLOAD SWAP1 DUP2 ADD PUSH1 0x40 MSTORE DUP1 SWAP3 SWAP2 SWAP1 DUP2 DUP2 MSTORE PUSH1 0x20 ADD DUP3 DUP1 SLOAD PUSH2 0x604 SWAP1 PUSH2 0x12F0 JUMP JUMPDEST DUP1 ISZERO PUSH2 0x651 JUMPI DUP1 PUSH1 0x1F LT PUSH2 0x626 JUMPI PUSH2 0x100 DUP1 DUP4 SLOAD DIV MUL DUP4 MSTORE SWAP2 PUSH1 0x20 ADD SWAP2 PUSH2 0x651 JUMP JUMPDEST DUP3 ADD SWAP2 SWAP1 PUSH1 0x0 MSTORE PUSH1 0x20 PUSH1 0x0 KECCAK256 SWAP1 JUMPDEST DUP2 SLOAD DUP2 MSTORE SWAP1 PUSH1 0x1 ADD SWAP1 PUSH1 0x20 ADD DUP1 DUP4 GT PUSH2 0x634 JUMPI DUP3 SWAP1 SUB PUSH1 0x1F AND DUP3 ADD SWAP2 JUMPDEST POP POP POP POP POP SWAP1 DUP1 PUSH1 0x5 ADD DUP1 SLOAD PUSH2 0x666 SWAP1 PUSH2 0x12F0 JUMP JUMPDEST DUP1 PUSH1 0x1F ADD PUSH1 0x20 DUP1 SWAP2 DIV MUL PUSH1 0x20 ADD PUSH1 0x40 MLOAD SWAP1 DUP2 ADD PUSH1 0x40 MSTORE DUP1 SWAP3 SWAP2 SWAP1 DUP2 DUP2 MSTORE PUSH1 0x20 ADD DUP3 DUP1 SLOAD PUSH2 0x692 SWAP1 PUSH2 0x12F0 JUMP JUMPDEST DUP1 ISZERO PUSH2 0x6DF JUMPI DUP1 PUSH1 0x1F LT PUSH2 0x6B4 JUMPI PUSH2 0x100 DUP1 DUP4 SLOAD DIV MUL DUP4 MSTORE SWAP2 PUSH1 0x20 ADD SWAP2 PUSH2 0x6DF JUMP JUMPDEST DUP3 ADD SWAP2 SWAP1 PUSH1 0x0 MSTORE PUSH1 0x20 PUSH1 0x0 KECCAK256 SWAP1 JUMPDEST DUP2 SLOAD DUP2 MSTORE SWAP1 PUSH1 0x1 ADD SWAP1 PUSH1 0x20 ADD DUP1 DUP4 GT PUSH2 0x6C2 JUMPI DUP3 SWAP1 SUB PUSH1 0x1F AND DUP3 ADD SWAP2 JUMPDEST POP POP POP POP POP SWAP1 DUP1 PUSH1 0x6 ADD DUP1 SLOAD PUSH2 0x6F4 SWAP1 PUSH2 0x12F0 JUMP JUMPDEST DUP1 PUSH1 0x1F ADD PUSH1 0x20 DUP1 SWAP2 DIV MUL PUSH1 0x20 ADD PUSH1 0x40 MLOAD SWAP1 DUP2 ADD PUSH1 0x40 MSTORE DUP1 SWAP3 SWAP2 SWAP1 DUP2 DUP2 MSTORE PUSH1 0x20 ADD DUP3 DUP1 SLOAD PUSH2 0x720 SWAP1 PUSH2 0x12F0 JUMP JUMPDEST DUP1 ISZERO PUSH2 0x76D JUMPI DUP1 PUSH1 0x1F LT PUSH2 0x742 JUMPI PUSH2 0x100 DUP1 DUP4 SLOAD DIV MUL DUP4 MSTORE SWAP2 PUSH1 0x20 ADD SWAP2 PUSH2 0x76D JUMP JUMPDEST DUP3 ADD SWAP2 SWAP1 PUSH1 0x0 MSTORE PUSH1 0x20 PUSH1 0x0 KECCAK256 SWAP1 JUMPDEST DUP2 SLOAD DUP2 MSTORE SWAP1 PUSH1 0x1 ADD SWAP1 PUSH1 0x20 ADD DUP1 DUP4 GT PUSH2 0x750 JUMPI DUP3 SWAP1 SUB PUSH1 0x1F AND DUP3 ADD SWAP2 JUMPDEST POP POP POP POP POP SWAP1 POP DUP8 JUMP JUMPDEST PUSH1 0x0 DUP1 SLOAD SWAP1 PUSH2 0x100 EXP SWAP1 DIV PUSH20 0xFFFFFFFFFFFFFFFFFFFFFFFFFFFFFFFFFFFFFFFF AND PUSH20 0xFFFFFFFFFFFFFFFFFFFFFFFFFFFFFFFFFFFFFFFF AND CALLER PUSH20 0xFFFFFFFFFFFFFFFFFFFFFFFFFFFFFFFFFFFFFFFF AND EQ PUSH2 0x7CF JUMPI PUSH1 0x0 DUP1 REVERT JUMPDEST PUSH1 0x0 PUSH1 0x1 SLOAD SWAP1 POP PUSH1 0x1 PUSH1 0x0 DUP2 SLOAD DUP1 SWAP3 SWAP2 SWAP1 PUSH2 0x7E9 SWAP1 PUSH2 0x1353 JUMP JUMPDEST SWAP2 SWAP1 POP SSTORE POP PUSH1 0x1 PUSH1 0x2 PUSH1 0x0 DUP4 DUP2 MSTORE PUSH1 0x20 ADD SWAP1 DUP2 MSTORE PUSH1 0x20 ADD PUSH1 0x0 KECCAK256 PUSH1 0x0 ADD PUSH1 0x0 PUSH2 0x100 EXP DUP2 SLOAD DUP2 PUSH1 0xFF MUL NOT AND SWAP1 DUP4 PUSH1 0x3 DUP2 GT ISZERO PUSH2 0x828 JUMPI PUSH2 0x827 PUSH2 0x13CB JUMP JUMPDEST JUMPDEST MUL OR SWAP1 SSTORE POP DUP2 PUSH1 0x0 PUSH1 0x6 DUP2 LT PUSH2 0x841 JUMPI PUSH2 0x840 PUSH2 0x1429 JUMP JUMPDEST JUMPDEST PUSH1 0x20 MUL ADD MLOAD PUSH1 0x2 PUSH1 0x0 DUP4 DUP2 MSTORE PUSH1 0x20 ADD SWAP1 DUP2 MSTORE PUSH1 0x20 ADD PUSH1 0x0 KECCAK256 PUSH1 0x1 ADD SWAP1 DUP1 MLOAD SWAP1 PUSH1 0x20 ADD SWAP1 PUSH2 0x86F SWAP3 SWAP2 SWAP1 PUSH2 0xD6D JUMP JUMPDEST POP DUP2 PUSH1 0x1 PUSH1 0x6 DUP2 LT PUSH2 0x884 JUMPI PUSH2 0x883 PUSH2 0x1429 JUMP JUMPDEST JUMPDEST PUSH1 0x20 MUL ADD MLOAD PUSH1 0x2 PUSH1 0x0 DUP4 DUP2 MSTORE PUSH1 0x20 ADD SWAP1 DUP2 MSTORE PUSH1 0x20 ADD PUSH1 0x0 KECCAK256 PUSH1 0x2 ADD SWAP1 DUP1 MLOAD SWAP1 PUSH1 0x20 ADD SWAP1 PUSH2 0x8B2 SWAP3 SWAP2 SWAP1 PUSH2 0xD6D JUMP JUMPDEST POP DUP2 PUSH1 0x2 PUSH1 0x6 DUP2 LT PUSH2 0x8C7 JUMPI PUSH2 0x8C6 PUSH2 0x1429 JUMP JUMPDEST JUMPDEST PUSH1 0x20 MUL ADD MLOAD PUSH1 0x2 PUSH1 0x0 DUP4 DUP2 MSTORE PUSH1 0x20 ADD SWAP1 DUP2 MSTORE PUSH1 0x20 ADD PUSH1 0x0 KECCAK256 PUSH1 0x3 ADD SWAP1 DUP1 MLOAD SWAP1 PUSH1 0x20 ADD SWAP1 PUSH2 0x8F5 SWAP3 SWAP2 SWAP1 PUSH2 0xD6D JUMP JUMPDEST POP DUP2 PUSH1 0x3 PUSH1 0x6 DUP2 LT PUSH2 0x90A JUMPI PUSH2 0x909 PUSH2 0x1429 JUMP JUMPDEST JUMPDEST PUSH1 0x20 MUL ADD MLOAD PUSH1 0x2 PUSH1 0x0 DUP4 DUP2 MSTORE PUSH1 0x20 ADD SWAP1 DUP2 MSTORE PUSH1 0x20 ADD PUSH1 0x0 KECCAK256 PUSH1 0x4 ADD SWAP1 DUP1 MLOAD SWAP1 PUSH1 0x20 ADD SWAP1 PUSH2 0x938 SWAP3 SWAP2 SWAP1 PUSH2 0xD6D JUMP JUMPDEST POP DUP2 PUSH1 0x4 PUSH1 0x6 DUP2 LT PUSH2 0x94D JUMPI PUSH2 0x94C PUSH2 0x1429 JUMP JUMPDEST JUMPDEST PUSH1 0x20 MUL ADD MLOAD PUSH1 0x2 PUSH1 0x0 DUP4 DUP2 MSTORE PUSH1 0x20 ADD SWAP1 DUP2 MSTORE PUSH1 0x20 ADD PUSH1 0x0 KECCAK256 PUSH1 0x5 ADD SWAP1 DUP1 MLOAD SWAP1 PUSH1 0x20 ADD SWAP1 PUSH2 0x97B SWAP3 SWAP2 SWAP1 PUSH2 0xD6D JUMP JUMPDEST POP DUP2 PUSH1 0x5 PUSH1 0x6 DUP2 LT PUSH2 0x990 JUMPI PUSH2 0x98F PUSH2 0x1429 JUMP JUMPDEST JUMPDEST PUSH1 0x20 MUL ADD MLOAD PUSH1 0x2 PUSH1 0x0 DUP4 DUP2 MSTORE PUSH1 0x20 ADD SWAP1 DUP2 MSTORE PUSH1 0x20 ADD PUSH1 0x0 KECCAK256 PUSH1 0x6 ADD SWAP1 DUP1 MLOAD SWAP1 PUSH1 0x20 ADD SWAP1 PUSH2 0x9BE SWAP3 SWAP2 SWAP1 PUSH2 0xD6D JUMP JUMPDEST POP PUSH32 0x5E3DD01F6975D9A23FD7E096490C1357FC9B4936457E07C100751C9BFB87EEC0 DUP2 PUSH1 0x2 PUSH1 0x0 DUP5 DUP2 MSTORE PUSH1 0x20 ADD SWAP1 DUP2 MSTORE PUSH1 0x20 ADD PUSH1 0x0 KECCAK256 PUSH1 0x1 ADD PUSH1 0x40 MLOAD PUSH2 0xA05 SWAP3 SWAP2 SWAP1 PUSH2 0x11A2 JUMP JUMPDEST PUSH1 0x40 MLOAD DUP1 SWAP2 SUB SWAP1 LOG1 POP POP JUMP JUMPDEST PUSH1 0x0 DUP1 SLOAD SWAP1 PUSH2 0x100 EXP SWAP1 DIV PUSH20 0xFFFFFFFFFFFFFFFFFFFFFFFFFFFFFFFFFFFFFFFF AND PUSH20 0xFFFFFFFFFFFFFFFFFFFFFFFFFFFFFFFFFFFFFFFF AND CALLER PUSH20 0xFFFFFFFFFFFFFFFFFFFFFFFFFFFFFFFFFFFFFFFF AND EQ PUSH2 0xA69 JUMPI PUSH1 0x0 DUP1 REVERT JUMPDEST DUP2 PUSH1 0x1 PUSH1 0x3 DUP2 GT ISZERO PUSH2 0xA7E JUMPI PUSH2 0xA7D PUSH2 0x13CB JUMP JUMPDEST JUMPDEST PUSH1 0x2 PUSH1 0x0 DUP4 DUP2 MSTORE PUSH1 0x20 ADD SWAP1 DUP2 MSTORE PUSH1 0x20 ADD PUSH1 0x0 KECCAK256 PUSH1 0x0 ADD PUSH1 0x0 SWAP1 SLOAD SWAP1 PUSH2 0x100 EXP SWAP1 DIV PUSH1 0xFF AND PUSH1 0x3 DUP2 GT ISZERO PUSH2 0xAB4 JUMPI PUSH2 0xAB3 PUSH2 0x13CB JUMP JUMPDEST JUMPDEST EQ PUSH2 0xABE JUMPI PUSH1 0x0 DUP1 REVERT JUMPDEST PUSH1 0x0 DUP3 PUSH1 0x0 PUSH1 0x6 DUP2 LT PUSH2 0xAD4 JUMPI PUSH2 0xAD3 PUSH2 0x1429 JUMP JUMPDEST JUMPDEST PUSH1 0x20 MUL ADD MLOAD SWAP1 POP PUSH1 0x0 DUP2 MLOAD EQ PUSH2 0xB28 JUMPI DUP3 PUSH1 0x0 PUSH1 0x6 DUP2 LT PUSH2 0xAF8 JUMPI PUSH2 0xAF7 PUSH2 0x1429 JUMP JUMPDEST JUMPDEST PUSH1 0x20 MUL ADD MLOAD PUSH1 0x2 PUSH1 0x0 DUP7 DUP2 MSTORE PUSH1 0x20 ADD SWAP1 DUP2 MSTORE PUSH1 0x20 ADD PUSH1 0x0 KECCAK256 PUSH1 0x1 ADD SWAP1 DUP1 MLOAD SWAP1 PUSH1 0x20 ADD SWAP1 PUSH2 0xB26 SWAP3 SWAP2 SWAP1 PUSH2 0xD6D JUMP JUMPDEST POP JUMPDEST DUP3 PUSH1 0x1 PUSH1 0x6 DUP2 LT PUSH2 0xB3C JUMPI PUSH2 0xB3B PUSH2 0x1429 JUMP JUMPDEST JUMPDEST PUSH1 0x20 MUL ADD MLOAD SWAP1 POP PUSH1 0x0 DUP2 MLOAD EQ PUSH2 0xB90 JUMPI DUP3 PUSH1 0x1 PUSH1 0x6 DUP2 LT PUSH2 0xB60 JUMPI PUSH2 0xB5F PUSH2 0x1429 JUMP JUMPDEST JUMPDEST PUSH1 0x20 MUL ADD MLOAD PUSH1 0x2 PUSH1 0x0 DUP7 DUP2 MSTORE PUSH1 0x20 ADD SWAP1 DUP2 MSTORE PUSH1 0x20 ADD PUSH1 0x0 KECCAK256 PUSH1 0x2 ADD SWAP1 DUP1 MLOAD SWAP1 PUSH1 0x20 ADD SWAP1 PUSH2 0xB8E SWAP3 SWAP2 SWAP1 PUSH2 0xD6D JUMP JUMPDEST POP JUMPDEST DUP3 PUSH1 0x2 PUSH1 0x6 DUP2 LT PUSH2 0xBA4 JUMPI PUSH2 0xBA3 PUSH2 0x1429 JUMP JUMPDEST JUMPDEST PUSH1 0x20 MUL ADD MLOAD SWAP1 POP PUSH1 0x0 DUP2 MLOAD EQ PUSH2 0xBF8 JUMPI DUP3 PUSH1 0x2 PUSH1 0x6 DUP2 LT PUSH2 0xBC8 JUMPI PUSH2 0xBC7 PUSH2 0x1429 JUMP JUMPDEST JUMPDEST PUSH1 0x20 MUL ADD MLOAD PUSH1 0x2 PUSH1 0x0 DUP7 DUP2 MSTORE PUSH1 0x20 ADD SWAP1 DUP2 MSTORE PUSH1 0x20 ADD PUSH1 0x0 KECCAK256 PUSH1 0x3 ADD SWAP1 DUP1 MLOAD SWAP1 PUSH1 0x20 ADD SWAP1 PUSH2 0xBF6 SWAP3 SWAP2 SWAP1 PUSH2 0xD6D JUMP JUMPDEST POP JUMPDEST DUP3 PUSH1 0x3 PUSH1 0x6 DUP2 LT PUSH2 0xC0C JUMPI PUSH2 0xC0B PUSH2 0x1429 JUMP JUMPDEST JUMPDEST PUSH1 0x20 MUL ADD MLOAD SWAP1 POP PUSH1 0x0 DUP2 MLOAD EQ PUSH2 0xC60 JUMPI DUP3 PUSH1 0x3 PUSH1 0x6 DUP2 LT PUSH2 0xC30 JUMPI PUSH2 0xC2F PUSH2 0x1429 JUMP JUMPDEST JUMPDEST PUSH1 0x20 MUL ADD MLOAD PUSH1 0x2 PUSH1 0x0 DUP7 DUP2 MSTORE PUSH1 0x20 ADD SWAP1 DUP2 MSTORE PUSH1 0x20 ADD PUSH1 0x0 KECCAK256 PUSH1 0x4 ADD SWAP1 DUP1 MLOAD SWAP1 PUSH1 0x20 ADD SWAP1 PUSH2 0xC5E SWAP3 SWAP2 SWAP1 PUSH2 0xD6D JUMP JUMPDEST POP JUMPDEST DUP3 PUSH1 0x4 PUSH1 0x6 DUP2 LT PUSH2 0xC74 JUMPI PUSH2 0xC73 PUSH2 0x1429 JUMP JUMPDEST JUMPDEST PUSH1 0x20 MUL ADD MLOAD SWAP1 POP PUSH1 0x0 DUP2 MLOAD EQ PUSH2 0xCC8 JUMPI DUP3 PUSH1 0x4 PUSH1 0x6 DUP2 LT PUSH2 0xC98 JUMPI PUSH2 0xC97 PUSH2 0x1429 JUMP JUMPDEST JUMPDEST PUSH1 0x20 MUL ADD MLOAD PUSH1 0x2 PUSH1 0x0 DUP7 DUP2 MSTORE PUSH1 0x20 ADD SWAP1 DUP2 MSTORE PUSH1 0x20 ADD PUSH1 0x0 KECCAK256 PUSH1 0x5 ADD SWAP1 DUP1 MLOAD SWAP1 PUSH1 0x20 ADD SWAP1 PUSH2 0xCC6 SWAP3 SWAP2 SWAP1 PUSH2 0xD6D JUMP JUMPDEST POP JUMPDEST DUP3 PUSH1 0x5 PUSH1 0x6 DUP2 LT PUSH2 0xCDC JUMPI PUSH2 0xCDB PUSH2 0x1429 JUMP JUMPDEST JUMPDEST PUSH1 0x20 MUL ADD MLOAD SWAP1 POP PUSH1 0x0 DUP2 MLOAD EQ PUSH2 0xD30 JUMPI DUP3 PUSH1 0x5 PUSH1 0x6 DUP2 LT PUSH2 0xD00 JUMPI PUSH2 0xCFF PUSH2 0x1429 JUMP JUMPDEST JUMPDEST PUSH1 0x20 MUL ADD MLOAD PUSH1 0x2 PUSH1 0x0 DUP7 DUP2 MSTORE PUSH1 0x20 ADD SWAP1 DUP2 MSTORE PUSH1 0x20 ADD PUSH1 0x0 KECCAK256 PUSH1 0x6 ADD SWAP1 DUP1 MLOAD SWAP1 PUSH1 0x20 ADD SWAP1 PUSH2 0xD2E SWAP3 SWAP2 SWAP1 PUSH2 0xD6D JUMP JUMPDEST POP JUMPDEST PUSH32 0x164C2E58722DC4A6F8CF8C576A57C505A23385CF838D63F1F1B16979D549E8C8 DUP5 PUSH1 0x40 MLOAD PUSH2 0xD5F SWAP2 SWAP1 PUSH2 0x1187 JUMP JUMPDEST PUSH1 0x40 MLOAD DUP1 SWAP2 SUB SWAP1 LOG1 POP POP POP POP JUMP JUMPDEST DUP3 DUP1 SLOAD PUSH2 0xD79 SWAP1 PUSH2 0x12F0 JUMP JUMPDEST SWAP1 PUSH1 0x0 MSTORE PUSH1 0x20 PUSH1 0x0 KECCAK256 SWAP1 PUSH1 0x1F ADD PUSH1 0x20 SWAP1 DIV DUP2 ADD SWAP3 DUP3 PUSH2 0xD9B JUMPI PUSH1 0x0 DUP6 SSTORE PUSH2 0xDE2 JUMP JUMPDEST DUP3 PUSH1 0x1F LT PUSH2 0xDB4 JUMPI DUP1 MLOAD PUSH1 0xFF NOT AND DUP4 DUP1 ADD OR DUP6 SSTORE PUSH2 0xDE2 JUMP JUMPDEST DUP3 DUP1 ADD PUSH1 0x1 ADD DUP6 SSTORE DUP3 ISZERO PUSH2 0xDE2 JUMPI SWAP2 DUP3 ADD JUMPDEST DUP3 DUP2 GT ISZERO PUSH2 0xDE1 JUMPI DUP3 MLOAD DUP3 SSTORE SWAP2 PUSH1 0x20 ADD SWAP2 SWAP1 PUSH1 0x1 ADD SWAP1 PUSH2 0xDC6 JUMP JUMPDEST JUMPDEST POP SWAP1 POP PUSH2 0xDEF SWAP2 SWAP1 PUSH2 0xDF3 JUMP JUMPDEST POP SWAP1 JUMP JUMPDEST JUMPDEST DUP1 DUP3 GT ISZERO PUSH2 0xE0C JUMPI PUSH1 0x0 DUP2 PUSH1 0x0 SWAP1 SSTORE POP PUSH1 0x1 ADD PUSH2 0xDF4 JUMP JUMPDEST POP SWAP1 JUMP JUMPDEST PUSH1 0x0 PUSH2 0xE23 PUSH2 0xE1E DUP5 PUSH2 0x11F7 JUMP JUMPDEST PUSH2 0x11D2 JUMP JUMPDEST SWAP1 POP DUP1 DUP3 DUP6 PUSH1 0x20 DUP7 MUL DUP3 ADD GT ISZERO PUSH2 0xE3D JUMPI PUSH2 0xE3C PUSH2 0x148C JUMP JUMPDEST JUMPDEST PUSH1 0x0 JUMPDEST DUP6 DUP2 LT ISZERO PUSH2 0xE8B JUMPI DUP2 CALLDATALOAD PUSH8 0xFFFFFFFFFFFFFFFF DUP2 GT ISZERO PUSH2 0xE63 JUMPI PUSH2 0xE62 PUSH2 0x1487 JUMP JUMPDEST JUMPDEST DUP1 DUP7 ADD PUSH2 0xE70 DUP10 DUP3 PUSH2 0xF02 JUMP JUMPDEST DUP6 MSTORE PUSH1 0x20 DUP6 ADD SWAP5 POP PUSH1 0x20 DUP5 ADD SWAP4 POP POP POP PUSH1 0x1 DUP2 ADD SWAP1 POP PUSH2 0xE40 JUMP JUMPDEST POP POP POP SWAP4 SWAP3 POP POP POP JUMP JUMPDEST PUSH1 0x0 PUSH2 0xEA8 PUSH2 0xEA3 DUP5 PUSH2 0x121D JUMP JUMPDEST PUSH2 0x11D2 JUMP JUMPDEST SWAP1 POP DUP3 DUP2 MSTORE PUSH1 0x20 DUP2 ADD DUP5 DUP5 DUP5 ADD GT ISZERO PUSH2 0xEC4 JUMPI PUSH2 0xEC3 PUSH2 0x1491 JUMP JUMPDEST JUMPDEST PUSH2 0xECF DUP5 DUP3 DUP6 PUSH2 0x12AE JUMP JUMPDEST POP SWAP4 SWAP3 POP POP POP JUMP JUMPDEST PUSH1 0x0 DUP3 PUSH1 0x1F DUP4 ADD SLT PUSH2 0xEEC JUMPI PUSH2 0xEEB PUSH2 0x1487 JUMP JUMPDEST JUMPDEST PUSH1 0x6 PUSH2 0xEF9 DUP5 DUP3 DUP6 PUSH2 0xE10 JUMP JUMPDEST SWAP2 POP POP SWAP3 SWAP2 POP POP JUMP JUMPDEST PUSH1 0x0 DUP3 PUSH1 0x1F DUP4 ADD SLT PUSH2 0xF17 JUMPI PUSH2 0xF16 PUSH2 0x1487 JUMP JUMPDEST JUMPDEST DUP2 CALLDATALOAD PUSH2 0xF27 DUP5 DUP3 PUSH1 0x20 DUP7 ADD PUSH2 0xE95 JUMP JUMPDEST SWAP2 POP POP SWAP3 SWAP2 POP POP JUMP JUMPDEST PUSH1 0x0 DUP2 CALLDATALOAD SWAP1 POP PUSH2 0xF3F DUP2 PUSH2 0x14C5 JUMP JUMPDEST SWAP3 SWAP2 POP POP JUMP JUMPDEST PUSH1 0x0 PUSH1 0x20 DUP3 DUP5 SUB SLT ISZERO PUSH2 0xF5B JUMPI PUSH2 0xF5A PUSH2 0x149B JUMP JUMPDEST JUMPDEST PUSH1 0x0 DUP3 ADD CALLDATALOAD PUSH8 0xFFFFFFFFFFFFFFFF DUP2 GT ISZERO PUSH2 0xF79 JUMPI PUSH2 0xF78 PUSH2 0x1496 JUMP JUMPDEST JUMPDEST PUSH2 0xF85 DUP5 DUP3 DUP6 ADD PUSH2 0xED7 JUMP JUMPDEST SWAP2 POP POP SWAP3 SWAP2 POP POP JUMP JUMPDEST PUSH1 0x0 PUSH1 0x20 DUP3 DUP5 SUB SLT ISZERO PUSH2 0xFA4 JUMPI PUSH2 0xFA3 PUSH2 0x149B JUMP JUMPDEST JUMPDEST PUSH1 0x0 PUSH2 0xFB2 DUP5 DUP3 DUP6 ADD PUSH2 0xF30 JUMP JUMPDEST SWAP2 POP POP SWAP3 SWAP2 POP POP JUMP JUMPDEST PUSH1 0x0 DUP1 PUSH1 0x40 DUP4 DUP6 SUB SLT ISZERO PUSH2 0xFD2 JUMPI PUSH2 0xFD1 PUSH2 0x149B JUMP JUMPDEST JUMPDEST PUSH1 0x0 PUSH2 0xFE0 DUP6 DUP3 DUP7 ADD PUSH2 0xF30 JUMP JUMPDEST SWAP3 POP POP PUSH1 0x20 DUP4 ADD CALLDATALOAD PUSH8 0xFFFFFFFFFFFFFFFF DUP2 GT ISZERO PUSH2 0x1001 JUMPI PUSH2 0x1000 PUSH2 0x1496 JUMP JUMPDEST JUMPDEST PUSH2 0x100D DUP6 DUP3 DUP7 ADD PUSH2 0xED7 JUMP JUMPDEST SWAP2 POP POP SWAP3 POP SWAP3 SWAP1 POP JUMP JUMPDEST PUSH2 0x1020 DUP2 PUSH2 0x129C JUMP JUMPDEST DUP3 MSTORE POP POP JUMP JUMPDEST PUSH1 0x0 PUSH2 0x1031 DUP3 PUSH2 0x1263 JUMP JUMPDEST PUSH2 0x103B DUP2 DUP6 PUSH2 0x126E JUMP JUMPDEST SWAP4 POP PUSH2 0x104B DUP2 DUP6 PUSH1 0x20 DUP7 ADD PUSH2 0x12BD JUMP JUMPDEST PUSH2 0x1054 DUP2 PUSH2 0x14A0 JUMP JUMPDEST DUP5 ADD SWAP2 POP POP SWAP3 SWAP2 POP POP JUMP JUMPDEST PUSH1 0x0 DUP2 SLOAD PUSH2 0x106C DUP2 PUSH2 0x12F0 JUMP JUMPDEST PUSH2 0x1076 DUP2 DUP7 PUSH2 0x126E JUMP JUMPDEST SWAP5 POP PUSH1 0x1 DUP3 AND PUSH1 0x0 DUP2 EQ PUSH2 0x1091 JUMPI PUSH1 0x1 DUP2 EQ PUSH2 0x10A3 JUMPI PUSH2 0x10D6 JUMP JUMPDEST PUSH1 0xFF NOT DUP4 AND DUP7 MSTORE PUSH1 0x20 DUP7 ADD SWAP4 POP PUSH2 0x10D6 JUMP JUMPDEST PUSH2 0x10AC DUP6 PUSH2 0x124E JUMP JUMPDEST PUSH1 0x0 JUMPDEST DUP4 DUP2 LT ISZERO PUSH2 0x10CE JUMPI DUP2 SLOAD DUP2 DUP10 ADD MSTORE PUSH1 0x1 DUP3 ADD SWAP2 POP PUSH1 0x20 DUP2 ADD SWAP1 POP PUSH2 0x10AF JUMP JUMPDEST DUP1 DUP9 ADD SWAP6 POP POP POP JUMPDEST POP POP POP SWAP3 SWAP2 POP POP JUMP JUMPDEST PUSH2 0x10E8 DUP2 PUSH2 0x1292 JUMP JUMPDEST DUP3 MSTORE POP POP JUMP JUMPDEST PUSH1 0x0 PUSH1 0xE0 DUP3 ADD SWAP1 POP PUSH2 0x1103 PUSH1 0x0 DUP4 ADD DUP11 PUSH2 0x1017 JUMP JUMPDEST DUP2 DUP2 SUB PUSH1 0x20 DUP4 ADD MSTORE PUSH2 0x1115 DUP2 DUP10 PUSH2 0x1026 JUMP JUMPDEST SWAP1 POP DUP2 DUP2 SUB PUSH1 0x40 DUP4 ADD MSTORE PUSH2 0x1129 DUP2 DUP9 PUSH2 0x1026 JUMP JUMPDEST SWAP1 POP DUP2 DUP2 SUB PUSH1 0x60 DUP4 ADD MSTORE PUSH2 0x113D DUP2 DUP8 PUSH2 0x1026 JUMP JUMPDEST SWAP1 POP DUP2 DUP2 SUB PUSH1 0x80 DUP4 ADD MSTORE PUSH2 0x1151 DUP2 DUP7 PUSH2 0x1026 JUMP JUMPDEST SWAP1 POP DUP2 DUP2 SUB PUSH1 0xA0 DUP4 ADD MSTORE PUSH2 0x1165 DUP2 DUP6 PUSH2 0x1026 JUMP JUMPDEST SWAP1 POP DUP2 DUP2 SUB PUSH1 0xC0 DUP4 ADD MSTORE PUSH2 0x1179 DUP2 DUP5 PUSH2 0x1026 JUMP JUMPDEST SWAP1 POP SWAP9 SWAP8 POP POP POP POP POP POP POP POP JUMP JUMPDEST PUSH1 0x0 PUSH1 0x20 DUP3 ADD SWAP1 POP PUSH2 0x119C PUSH1 0x0 DUP4 ADD DUP5 PUSH2 0x10DF JUMP JUMPDEST SWAP3 SWAP2 POP POP JUMP JUMPDEST PUSH1 0x0 PUSH1 0x40 DUP3 ADD SWAP1 POP PUSH2 0x11B7 PUSH1 0x0 DUP4 ADD DUP6 PUSH2 0x10DF JUMP JUMPDEST DUP2 DUP2 SUB PUSH1 0x20 DUP4 ADD MSTORE PUSH2 0x11C9 DUP2 DUP5 PUSH2 0x105F JUMP JUMPDEST SWAP1 POP SWAP4 SWAP3 POP POP POP JUMP JUMPDEST PUSH1 0x0 PUSH2 0x11DC PUSH2 0x11ED JUMP JUMPDEST SWAP1 POP PUSH2 0x11E8 DUP3 DUP3 PUSH2 0x1322 JUMP JUMPDEST SWAP2 SWAP1 POP JUMP JUMPDEST PUSH1 0x0 PUSH1 0x40 MLOAD SWAP1 POP SWAP1 JUMP JUMPDEST PUSH1 0x0 PUSH8 0xFFFFFFFFFFFFFFFF DUP3 GT ISZERO PUSH2 0x1212 JUMPI PUSH2 0x1211 PUSH2 0x1458 JUMP JUMPDEST JUMPDEST PUSH1 0x20 DUP3 MUL SWAP1 POP SWAP2 SWAP1 POP JUMP JUMPDEST PUSH1 0x0 PUSH8 0xFFFFFFFFFFFFFFFF DUP3 GT ISZERO PUSH2 0x1238 JUMPI PUSH2 0x1237 PUSH2 0x1458 JUMP JUMPDEST JUMPDEST PUSH2 0x1241 DUP3 PUSH2 0x14A0 JUMP JUMPDEST SWAP1 POP PUSH1 0x20 DUP2 ADD SWAP1 POP SWAP2 SWAP1 POP JUMP JUMPDEST PUSH1 0x0 DUP2 SWAP1 POP DUP2 PUSH1 0x0 MSTORE PUSH1 0x20 PUSH1 0x0 KECCAK256 SWAP1 POP SWAP2 SWAP1 POP JUMP JUMPDEST PUSH1 0x0 DUP2 MLOAD SWAP1 POP SWAP2 SWAP1 POP JUMP JUMPDEST PUSH1 0x0 DUP3 DUP3 MSTORE PUSH1 0x20 DUP3 ADD SWAP1 POP SWAP3 SWAP2 POP POP JUMP JUMPDEST PUSH1 0x0 DUP2 SWAP1 POP PUSH2 0x128D DUP3 PUSH2 0x14B1 JUMP JUMPDEST SWAP2 SWAP1 POP JUMP JUMPDEST PUSH1 0x0 DUP2 SWAP1 POP SWAP2 SWAP1 POP JUMP JUMPDEST PUSH1 0x0 PUSH2 0x12A7 DUP3 PUSH2 0x127F JUMP JUMPDEST SWAP1 POP SWAP2 SWAP1 POP JUMP JUMPDEST DUP3 DUP2 DUP4 CALLDATACOPY PUSH1 0x0 DUP4 DUP4 ADD MSTORE POP POP POP JUMP JUMPDEST PUSH1 0x0 JUMPDEST DUP4 DUP2 LT ISZERO PUSH2 0x12DB JUMPI DUP1 DUP3 ADD MLOAD DUP2 DUP5 ADD MSTORE PUSH1 0x20 DUP2 ADD SWAP1 POP PUSH2 0x12C0 JUMP JUMPDEST DUP4 DUP2 GT ISZERO PUSH2 0x12EA JUMPI PUSH1 0x0 DUP5 DUP5 ADD MSTORE JUMPDEST POP POP POP POP JUMP JUMPDEST PUSH1 0x0 PUSH1 0x2 DUP3 DIV SWAP1 POP PUSH1 0x1 DUP3 AND DUP1 PUSH2 0x1308 JUMPI PUSH1 0x7F DUP3 AND SWAP2 POP JUMPDEST PUSH1 0x20 DUP3 LT DUP2 EQ ISZERO PUSH2 0x131C JUMPI PUSH2 0x131B PUSH2 0x13FA JUMP JUMPDEST JUMPDEST POP SWAP2 SWAP1 POP JUMP JUMPDEST PUSH2 0x132B DUP3 PUSH2 0x14A0 JUMP JUMPDEST DUP2 ADD DUP2 DUP2 LT PUSH8 0xFFFFFFFFFFFFFFFF DUP3 GT OR ISZERO PUSH2 0x134A JUMPI PUSH2 0x1349 PUSH2 0x1458 JUMP JUMPDEST JUMPDEST DUP1 PUSH1 0x40 MSTORE POP POP POP JUMP JUMPDEST PUSH1 0x0 PUSH2 0x135E DUP3 PUSH2 0x1292 JUMP JUMPDEST SWAP2 POP PUSH32 0xFFFFFFFFFFFFFFFFFFFFFFFFFFFFFFFFFFFFFFFFFFFFFFFFFFFFFFFFFFFFFFFF DUP3 EQ ISZERO PUSH2 0x1391 JUMPI PUSH2 0x1390 PUSH2 0x139C JUMP JUMPDEST JUMPDEST PUSH1 0x1 DUP3 ADD SWAP1 POP SWAP2 SWAP1 POP JUMP JUMPDEST PUSH32 0x4E487B7100000000000000000000000000000000000000000000000000000000 PUSH1 0x0 MSTORE PUSH1 0x11 PUSH1 0x4 MSTORE PUSH1 0x24 PUSH1 0x0 REVERT JUMPDEST PUSH32 0x4E487B7100000000000000000000000000000000000000000000000000000000 PUSH1 0x0 MSTORE PUSH1 0x21 PUSH1 0x4 MSTORE PUSH1 0x24 PUSH1 0x0 REVERT JUMPDEST PUSH32 0x4E487B7100000000000000000000000000000000000000000000000000000000 PUSH1 0x0 MSTORE PUSH1 0x22 PUSH1 0x4 MSTORE PUSH1 0x24 PUSH1 0x0 REVERT JUMPDEST PUSH32 0x4E487B7100000000000000000000000000000000000000000000000000000000 PUSH1 0x0 MSTORE PUSH1 0x32 PUSH1 0x4 MSTORE PUSH1 0x24 PUSH1 0x0 REVERT JUMPDEST PUSH32 0x4E487B7100000000000000000000000000000000000000000000000000000000 PUSH1 0x0 MSTORE PUSH1 0x41 PUSH1 0x4 MSTORE PUSH1 0x24 PUSH1 0x0 REVERT JUMPDEST PUSH1 0x0 DUP1 REVERT JUMPDEST PUSH1 0x0 DUP1 REVERT JUMPDEST PUSH1 0x0 DUP1 REVERT JUMPDEST PUSH1 0x0 DUP1 REVERT JUMPDEST PUSH1 0x0 DUP1 REVERT JUMPDEST PUSH1 0x0 PUSH1 0x1F NOT PUSH1 0x1F DUP4 ADD AND SWAP1 POP SWAP2 SWAP1 POP JUMP JUMPDEST PUSH1 0x4 DUP2 LT PUSH2 0x14C2 JUMPI PUSH2 0x14C1 PUSH2 0x13CB JUMP JUMPDEST JUMPDEST POP JUMP JUMPDEST PUSH2 0x14CE DUP2 PUSH2 0x1292 JUMP JUMPDEST DUP2 EQ PUSH2 0x14D9 JUMPI PUSH1 0x0 DUP1 REVERT JUMPDEST POP JUMP INVALID LOG2 PUSH5 0x6970667358 0x22 SLT KECCAK256 PUSH3 0x6882C4 DELEGATECALL DUP2 DUP11 0xA8 BALANCE 0xAA 0xD4 DUP12 PUSH29 0xE19586E4430F1B0CA380ED8C00BD6FF79FCF564736F6C634300080700 CALLER "
				},
				"gasEstimates": {
					"creation": {
						"codeDepositCost": "1078800",
						"executionCost": "25386",
						"totalCost": "1104186"
					},
					"external": {
						"change_attribs(uint256,string[6])": "infinite",
						"delete_object(uint256)": "29247",
						"object_add(string[6])": "infinite",
						"objects(uint256)": "infinite",
						"reactivate_object(uint256)": "29225",
						"suspend_object(uint256)": "29269"
					}
				},
				"methodIdentifiers": {
					"change_attribs(uint256,string[6])": "f55172d8",
					"delete_object(uint256)": "08dafd07",
					"object_add(string[6])": "f23de3b2",
					"objects(uint256)": "ed175850",
					"reactivate_object(uint256)": "02d9530d",
					"suspend_object(uint256)": "85ca76d7"
				}
			},
			"storageLayout": {
				"storage": [
					{
						"astId": 24,
						"contract": "ObjectAttributes.sol:ObjectAttribute",
						"label": "admin",
						"offset": 0,
						"slot": "0",
						"type": "t_address"
					},
					{
						"astId": 26,
						"contract": "ObjectAttributes.sol:ObjectAttribute",
						"label": "num_objects",
						"offset": 0,
						"slot": "1",
						"type": "t_uint256"
					},
					{
						"astId": 31,
						"contract": "ObjectAttributes.sol:ObjectAttribute",
						"label": "objects",
						"offset": 0,
						"slot": "2",
						"type": "t_mapping(t_uint256,t_struct(Object)22_storage)"
					}
				],
				"types": {
					"t_address": {
						"encoding": "inplace",
						"label": "address",
						"numberOfBytes": "20"
					},
					"t_enum(ObjectState)6": {
						"encoding": "inplace",
						"label": "enum ObjectAttribute.ObjectState",
						"numberOfBytes": "1"
					},
					"t_mapping(t_uint256,t_struct(Object)22_storage)": {
						"encoding": "mapping",
						"key": "t_uint256",
						"label": "mapping(uint256 => struct ObjectAttribute.Object)",
						"numberOfBytes": "32",
						"value": "t_struct(Object)22_storage"
					},
					"t_string_storage": {
						"encoding": "bytes",
						"label": "string",
						"numberOfBytes": "32"
					},
					"t_struct(Object)22_storage": {
						"encoding": "inplace",
						"label": "struct ObjectAttribute.Object",
						"members": [
							{
								"astId": 9,
								"contract": "ObjectAttributes.sol:ObjectAttribute",
								"label": "state",
								"offset": 0,
								"slot": "0",
								"type": "t_enum(ObjectState)6"
							},
							{
								"astId": 11,
								"contract": "ObjectAttributes.sol:ObjectAttribute",
								"label": "name",
								"offset": 0,
								"slot": "1",
								"type": "t_string_storage"
							},
							{
								"astId": 13,
								"contract": "ObjectAttributes.sol:ObjectAttribute",
								"label": "campus",
								"offset": 0,
								"slot": "2",
								"type": "t_string_storage"
							},
							{
								"astId": 15,
								"contract": "ObjectAttributes.sol:ObjectAttribute",
								"label": "major",
								"offset": 0,
								"slot": "3",
								"type": "t_string_storage"
							},
							{
								"astId": 17,
								"contract": "ObjectAttributes.sol:ObjectAttribute",
								"label": "dorm",
								"offset": 0,
								"slot": "4",
								"type": "t_string_storage"
							},
							{
								"astId": 19,
								"contract": "ObjectAttributes.sol:ObjectAttribute",
								"label": "year",
								"offset": 0,
								"slot": "5",
								"type": "t_string_storage"
							},
							{
								"astId": 21,
								"contract": "ObjectAttributes.sol:ObjectAttribute",
								"label": "studentID",
								"offset": 0,
								"slot": "6",
								"type": "t_string_storage"
							}
						],
						"numberOfBytes": "224"
					},
					"t_uint256": {
						"encoding": "inplace",
						"label": "uint256",
						"numberOfBytes": "32"
					}
				}
			},
			"userdoc": {
				"kind": "user",
				"methods": {},
				"version": 1
			}
		}
	}
}